:020000040800F2
:1000000000000220692600081919000827190008B5
:100010002D190008331900083919000800000000E4
:100020000000000000000000000000003F19000870
:100030004D190008000000005B190008691900084C
:10004000BD260008BD260008BD260008BD26000804
:10005000BD260008BD260008BD260008BD260008F4
:10006000BD260008BD260008BD260008BD260008E4
:10007000BD260008BD260008BD260008BD260008D4
:10008000BD260008BD26000879190008BD26000815
:10009000BD260008BD260008BD260008BD260008B4
:1000A000BD260008BD260008BD260008BD260008A4
:1000B000BD260008BD260008BD260008BD26000894
:1000C000BD260008BD260008BD260008BD26000884
:1000D000BD260008BD260008BD260008BD26000874
:1000E000BD260008BD260008BD260008BD26000864
:1000F000BD260008A1190008BD260008BD2600087D
:10010000BD260008BD260008BD260008BD19000850
:10011000BD260008BD260008D1190008E519000811
:10012000F91900080D1A0008211A0008BD26000858
:10013000BD2600080000000000000000BD260008E9
:10014000BD260008BD260008BD260008351A000897
:10015000BD260008BD260008BD260008BD260008F3
:10016000BD260008BD260008BD260008BD260008E3
:10017000BD260008BD2600080000000000000000A9
:08018000BD260008BD260008A1
:1001900010B5054C237833B9044B13B10448AFF3C1
:1001A00000800123237010BDB40C0020000000006B
:1001B0009408010808B5034B1BB103490348AFF38A
:1001C000008008BD00000000B80C00209408010861
:1001D00001F0FF01102A2BDB10F0070F08D010F8F8
:1001E000013B013A8B422DD010F0070F42B3F6D1FC
:1001F000F0B441EA012141EA014122F007047FF015
:1002000000070023F0E80256083C85EA010586EA6B
:10021000010685FA47F5A3FA87F586FA47F6A5FAA7
:1002200087F68EB9EED1F0BC01F0FF0102F00702B3
:1002300032B110F8013B013A83EA010313B1F8D15E
:100240000020704701387047002D06BF354603383F
:10025000073815F0010F07D1013015F4807F02BF78
:10026000013015F4C03F0130F0BC0138704700BFC9
:1002700070B54FF0FF0C4CF4E06C1CEA11541DBF3C
:100280001CEA135594EA0C0F95EA0C0F00F0DEF807
:100290002C4481EA030621EA4C5123EA4C5350EAEC
:1002A000013518BF52EA033541F4801143F480133D
:1002B00038D0A0FB02CE4FF00005E1FB02E506F0CE
:1002C0000042E0FB03E54FF00006E1FB03569CF023
:1002D000000F18BF4EF0010EA4F1FF04B6F5007F29
:1002E00064F5407404D25FEA4E0E6D4146EB06069B
:1002F00042EAC62141EA55514FEAC52040EA5E5024
:100300004FEACE2EB4F1FD0C88BFBCF5E06F1ED8CD
:10031000BEF1004F08BF5FEA500E50F1000041EB04
:10032000045170BD06F0004646EA010140EA0200B1
:1003300081EA0301B4EB5C04C2BFD4EB0C0541EAD3
:10034000045170BD41F480114FF0000E013C00F3E8
:10035000AB8014F1360FDEBF002001F0004170BD0C
:10036000C4F10004203C35DA0C341BDC04F1140425
:10037000C4F1200500FA05F320FA04F001FA05F2B1
:1003800040EA020001F0004221F0004110EBD3707E
:1003900021FA04F642EB06015EEA430E08BF20EAAA
:1003A000D37070BDC4F10C04C4F1200500FA04F34D
:1003B00020FA05F001FA04F240EA020001F00041DF
:1003C00010EBD37041F100015EEA430E08BF20EA52
:1003D000D37070BDC4F1200500FA05F24EEA020E9A
:1003E00020FA04F301FA05F243EA020321FA04F0C9
:1003F00001F0004121FA04F220EA020000EBD37080
:100400005EEA430E08BF20EAD37070BD94F0000F7F
:100410000FD101F00046400041EB010111F4801FB3
:1004200008BF013CF7D041EA060195F0000F18BF64
:10043000704703F00046520043EB030313F4801FA0
:1004400008BF013DF7D043EA0603704794EA0C0F5A
:100450000CEA135518BF95EA0C0F0CD050EA410670
:1004600018BF52EA4306D1D181EA030101F00041ED
:100470004FF0000070BD50EA410606BF1046194615
:1004800052EA430619D094EA0C0F02D150EA013621
:1004900013D195EA0C0F05D152EA03361CBF104662
:1004A00019460AD181EA030101F0004141F0FE4101
:1004B00041F470014FF0000070BD41F0FE4141F485
:1004C000780170BD81F0004102E000BF83F000437D
:1004D00030B54FEA41044FEA430594EA050F08BFDF
:1004E00090EA020F1FBF54EA000C55EA020C7FEAA3
:1004F000645C7FEA655C00F0E2804FEA5454D4EB20
:100500005555B8BF6D420CDD2C4480EA020281EAE9
:10051000030382EA000083EA010180EA020281EA21
:100520000303362D88BF30BD11F0004F4FEA013173
:100530004FF4801C4CEA113102D0404261EB410182
:1005400013F0004F4FEA03334CEA133302D0524208
:1005500063EB430394EA050F00F0A780A4F10104C4
:10056000D5F1200E0DDB02FA0EFC22FA05F28018FE
:1005700041F1000103FA0EF2801843FA05F35941E4
:100580000EE0A5F120050EF1200E012A03FA0EFC63
:1005900028BF4CF0020C43FA05F3C01851EBE3718D
:1005A00001F0004507D54FF0000EDCF1000C7EEBAA
:1005B00000006EEB0101B1F5801F1BD3B1F5001FE8
:1005C0000CD349085FEA30004FEA3C0C04F1010407
:1005D0004FEA445212F5800F80F09A80BCF1004F30
:1005E00008BF5FEA500C50F1000041EB045141EAB2
:1005F000050130BD5FEA4C0C404141EB0101013C7B
:1006000028BFB1F5801FE9D291F0000F04BF014669
:100610000020B1FA81F308BF2033A3F10B03B3F13B
:1006200020020CDA0C3208DD02F1140CC2F10C02CB
:1006300001FA0CF021FA02F10CE002F11402D8BF29
:10064000C2F1200C01FA02F120FA0CFCDCBF41EAF5
:100650000C019040E41AA2BF01EB0451294330BDC4
:100660006FEA04041F3C1CDA0C340EDC04F11404A1
:10067000C4F1200220FA04F001FA02F340EA030078
:1006800021FA04F345EA030130BDC4F10C04C4F1BE
:10069000200220FA02F001FA04F340EA030029469E
:1006A00030BD21FA04F0294630BD94F0000F83F4E8
:1006B000801306BF81F480110134013D4EE77FEACB
:1006C000645C18BF7FEA655C29D094EA050F08BF17
:1006D00090EA020F05D054EA000C04BF19461046F8
:1006E00030BD91EA030F1EBF0021002030BD5FEA3C
:1006F000545C05D14000494128BF41F0004130BD64
:1007000014F580043CBF01F5801130BD01F00045B7
:1007100045F0FE4141F470014FF0000030BD7FEA2A
:10072000645C1ABF194610467FEA655C1CBF0B4625
:10073000024650EA013406BF52EA033591EA030F3C
:1007400041F4002130BD00BF90F0000F04BF002134
:10075000704730B54FF4806404F132044FF0000567
:100760004FF0000150E700BF90F0000F04BF0021E0
:10077000704730B54FF4806404F1320410F0004546
:1007800048BF40424FF000013EE700BF42004FEA41
:10079000E2014FEA31014FEA02701FBF12F07F43BE
:1007A00093F07F4F81F06051704732F07F4208BF75
:1007B000704793F07F4F04BF41F40021704730B57C
:1007C0004FF4607401F0004521F000411CE700BFC8
:1007D00050EA010208BF704730B54FF000050AE04B
:1007E00050EA010208BF704730B511F0004502D54C
:1007F000404261EB41014FF4806404F132045FEA4E
:10080000915C3FF4D8AE4FF003025FEADC0C18BFF6
:1008100003325FEADC0C18BF033202EBDC02C2F1E8
:10082000200300FA03FC20FA02F001FA03FE40EA7A
:100830000E0021FA02F11444BDE600BF4A0011D2B5
:1008400012F5001211D20DD56FF47873B3EB62522A
:100850000ED44FEAC12343F0004343EA505323FA36
:1008600002F070474FF00000704750EA013002D1AB
:100870004FF0FF3070474FF0000070474FEA4102E1
:10088000B2F1E04324BFB3F5001CDCF1FE5C0DD9EE
:1008900001F0004C4FEAC0024CEA5070B2F1004F38
:1008A00040EB830008BF20F00100704711F0804F3B
:1008B00021D113F13872BCBF01F00040704741F400
:1008C00080114FEA5252C2F11802C2F1200C10FA04
:1008D0000CF320FA02F018BF40F001004FEAC123E8
:1008E0004FEAD32303FA0CFC40EA0C0023FA02F38C
:1008F0004FEA4303CCE77FEA625307D150EA013362
:100900001EBF4FF0FE4040F44000704701F0004031
:1009100040F0FE4040F40000704700BF53B94AB9B0
:10092000002908BF00281CBF4FF0FF314FF0FF30F7
:1009300000F074B9ADF1080C6DE904CE00F006F8D2
:10094000DDF804E0DDE9022304B070472DE9F0474B
:10095000089D04468E46002B4DD18A42944669D9A3
:10096000B2FA82F252B101FA02F3C2F1200120FA86
:1009700001F10CFA02FC41EA030E94404FEA1C48D4
:10098000210CBEFBF8F61FFA8CF708FB16E341EAD0
:10099000034306FB07F199420AD91CEB030306F156
:1009A000FF3080F01F81994240F21C81023E634477
:1009B0005B1AA4B2B3FBF8F008FB103344EA03441B
:1009C00000FB07F7A7420AD91CEB040400F1FF3330
:1009D00080F00A81A74240F207816444023840EA6D
:1009E0000640E41B00261DB1D4400023C5E90043A6
:1009F0003146BDE8F0878B4209D9002D00F0EF8029
:100A00000026C5E9000130463146BDE8F087B3FA5B
:100A100083F6002E4AD18B4202D3824200F2F98043
:100A2000841A61EB030301209E46002DE0D0C5E946
:100A3000004EDDE702B9FFDEB2FA82F2002A40F092
:100A40009280A1EB0C014FEA1C471FFA8CFE012695
:100A5000200CB1FBF7F307FB131140EA01410EFB39
:100A600003F0884208D91CEB010103F1FF3802D2E0
:100A7000884200F2CB804346091AA4B2B1FBF7F0DA
:100A800007FB101144EA01440EFB00FEA64508D9FD
:100A90001CEB040400F1FF3102D2A64500F2BB803A
:100AA0000846A4EB0E0440EA03409CE7C6F1200789
:100AB000B34022FA07FC4CEA030C20FA07F401FACF
:100AC00006F31C43F9404FEA1C4900FA06F3B1FB58
:100AD000F9F8200C1FFA8CFE09FB181140EA0141BD
:100AE00008FB0EF0884202FA06F20BD91CEB01015A
:100AF00008F1FF3A80F08880884240F28580A8F1B2
:100B000002086144091AA4B2B1FBF9F009FB101103
:100B100044EA014100FB0EFE8E4508D91CEB0101A1
:100B200000F1FF346CD28E456AD90238614440EA44
:100B30000840A0FB0294A1EB0E01A142C846A646C4
:100B400056D353D05DB1B3EB080261EB0E0101FA4D
:100B500007F722FA06F3F1401F43C5E900710026AA
:100B60003146BDE8F087C2F12003D8400CFA02FC00
:100B700021FA03F3914001434FEA1C471FFA8CFE10
:100B8000B3FBF7F007FB10360B0C43EA064300FB00
:100B90000EF69E4204FA02F408D91CEB030300F19E
:100BA000FF382FD29E422DD9023863449B1B89B255
:100BB000B3FBF7F607FB163341EA034106FB0EF3DE
:100BC0008B4208D91CEB010106F1FF3816D28B428B
:100BD00014D9023E6144C91A46EA004638E72E4657
:100BE000284605E70646E3E61846F8E64B45A9D24F
:100BF000B9EB020864EB0C0E0138A3E74646EAE7BE
:100C0000204694E74046D1E7D0467BE7023B61446B
:100C100032E7304609E76444023842E7704700BFD4
:100C200080B590B000AF07F1340300221A605A601B
:100C30009A6007F1240300221A605A609A60DA6011
:100C40003B1D2022002118460EF05AFE3A4B3B4A2B
:100C50001A60394B4FF480325A60374B00229A6049
:100C6000354B00221A61344B00221A76324B002297
:100C700083F82020304B4FF08052DA622E4B4FF039
:100C800060629A622C4B0022DA602B4B0122DA61FF
:100C9000294B012283F83020274B01225A61264834
:100CA00006F052FB0346002B01D000F023FD112378
:100CB0007B634FF48043BB630023FB6307F1340382
:100CC00019461D4807F01AFB0346002B01D000F01F
:100CD00011FD06237B620123BB620123FB6207F146
:100CE00024031946144806F0DBFC0346002B01D010
:100CF00000F000FD06237B600123BB6001237B61C4
:100D00000123FB604FF480133B624FF48033FB619F
:100D100000237B7600233B7600233B613B1D194675
:100D2000054807F055F90346002B01D000F0E2FC1E
:100D300000BF4037BD4680BD880E00200020014026
:100D400080B58CB000AF07F1200300221A605A6012
:100D50009A60DA603B462022002118460EF0D0FD52
:100D60002A4B2B4A1A60294B4FF480325A60274B8A
:100D700000229A60254B00221A61244B00221A7629
:100D8000224B002283F82020204B0022DA601F4BE8
:100D90000122DA611D4B012283F830201B4B012216
:100DA0005A611A4806F0D0FA0346002B01D000F031
:100DB000A1FC0D233B6201237B620123BB6207F18F
:100DC00020031946114806F06BFC0346002B01D0A6
:100DD00000F090FC0A233B6001237B6001233B6110
:100DE0000123BB6001237B7500233B750023FB605F
:100DF0003B461946054807F0EBF80346002B01D0A7
:100E000000F078FC00BF3037BD4680BDE00D00200B
:100E10000021014080B58CB000AF07F12003002213
:100E20001A605A609A60DA603B4620220021184618
:100E30000EF066FD2A4B2B4A1A60294B4FF4803284
:100E40005A60274B00229A60254B00221A61244BDE
:100E500000221A76224B002283F82020204B002209
:100E6000DA601F4B0122DA611D4B012283F830202A
:100E70001B4B01225A611A4806F066FA0346002B02
:100E800001D000F037FC0C233B6201237B6201237D
:100E9000BB6207F120031946114806F001FC034626
:100EA000002B01D000F026FC0B233B6001237B606C
:100EB00001233B610123BB6001237B7500233B754C
:100EC0000023FB603B461946054807F081F80346BE
:100ED000002B01D000F00EFC00BF3037BD4680BDB6
:100EE000D00E00200022014080B590B000AF7860A5
:100EF00007F12C0300221A605A609A60DA601A61C6
:100F00007B681B687F4A93427AD10023BB627E4B89
:100F10005B6C7D4A43F4807353647B4B5B6C03F4DE
:100F20008073BB62BB6A00237B62774B1B6B764A84
:100F300043F004031363744B1B6B03F004037B62E5
:100F40007B6A00233B62704B1B6B6F4A43F00103CB
:100F500013636D4B1B6B03F001033B623B6A2F2352
:100F6000FB6203233B6300237B6307F12C031946D9
:100F7000664808F03FFA7023FB6203233B630023BB
:100F80007B6307F12C031946614808F033FA614B83
:100F9000614A1A605F4B00225A605E4B00229A60E1
:100FA0005C4B0022DA605B4B4FF480621A61594B54
:100FB0004FF400625A61574B4FF400529A61554BFF
:100FC0004FF48072DA61534B00221A62514B0022B7
:100FD0005A62504807F07EFC0346002B01D000F017
:100FE00089FB7B684B4A9A634A4A7B689363002279
:100FF0000021122007F0F4FB122007F00DFCF9E0AD
:101000007B681B68454A934240F08E800023FB6159
:101010003D4B5B6C3C4A43F4007353643A4B5B6C4E
:1010200003F40073FB61FB690023BB61364B1B6B50
:10103000354A43F004031363334B1B6B03F0040383
:10104000BB61BB6900237B612F4B1B6B2E4A43F0B6
:10105000010313632C4B1B6B03F001037B617B6962
:101060002F23FB6203233B6300237B6307F12C03E5
:101070001946264808F0BEF97023FB6203233B6340
:1010800000237B6307F12C031946214808F0B2F9CD
:10109000234B244A1A60224B4FF000725A60204BB7
:1010A00000229A601E4B0022DA601D4B4FF48062D2
:1010B0001A611B4B4FF400625A61194B4FF40052F6
:1010C0009A61174B4FF48072DA61154B00221A6255
:1010D000134B00225A62124807F0FCFB0346002B18
:1010E00001D000F007FB7B680D4A9A630C4A7B68CD
:1010F000936300220021122007F072FB122007F0F8
:101100008BFB77E0002001400038024000080240DD
:1011100000000240180F002010640240002101402E
:10112000780F0020406402407B681B68334A93427A
:1011300060D100233B61324B5B6C314A43F48063E6
:1011400053642F4B5B6C03F480633B613B6900236A
:10115000FB602B4B1B6B2A4A43F004031363284BA1
:101160001B6B03F00403FB60FB680F23FB6203238C
:101170003B6300237B6307F12C031946214808F0E9
:1011800039F9214B214A1A601F4B4FF080625A6097
:101190001D4B00229A601C4B0022DA601A4B4FF460
:1011A00080621A61184B4FF400625A61164B4FF47B
:1011B00000529A61144B4FF48072DA61124B002294
:1011C0001A62114B00225A620F4807F083FB034654
:1011D000002B01D000F08EFA7B680B4A9A630A4A12
:1011E0007B68936300220021122007F0F9FA122095
:1011F00007F012FB00BF4037BD4680BD0022014012
:101200000038024000080240280E002028640240F6
:1012100080B500AF164B174A1A60154B10225A6062
:10122000134B00229A60124B0022DA60104B00220E
:101230001A610F4B00225A610D4B00221A760C4B9B
:1012400000225A760A4B00229A76094B0022DA765F
:10125000074B00221A77064B00225A77044807F002
:101260000BF90346002B01D000F044FA00BF80BD0B
:10127000D80F00200064004080B58AB000AF7860CD
:1012800007F1140300221A605A609A60DA601A614A
:101290007B681B68194A93422CD100233B61184B91
:1012A0001B6C174A43F000731364154B1B6C03F05F
:1012B00000733B613B690023FB60114B1B6B104AC1
:1012C00043F0020313630E4B1B6B03F00203FB603E
:1012D000FB684FF440737B610223BB610023FB6119
:1012E00003233B6209237B6207F114031946054877
:1012F00008F080F800BF2837BD4680BD006400407C
:10130000003802400004024080B500AF064B074A97
:101310001A60054807F08EFA0346002B01D000F052
:10132000E9F900BF80BD00BF00100020003002407E
:1013300080B485B000AF78607B681B680B4A93422D
:101340000DD10023FB600A4B1B6B094A43F4805309
:101350001363074B1B6B03F48053FB60FB6800BFF8
:101360001437BD465DF8047B704700BF0030024073
:101370000038024080B582B000AF00237B60144B80
:101380001B6B134A43F480031363114B1B6B03F471
:1013900080037B607B6800220021382007F020FA60
:1013A000382007F039FA00220021392007F018FA16
:1013B000392007F031FA002200213A2007F010FA14
:1013C0003A2007F029FA00BF0837BD4680BD00BFAC
:1013D0000038024080B58AB000AF07F11403002244
:1013E0001A605A609A60DA601A6100233B61654BAB
:1013F0001B6B644A43F004031363624B1B6B03F0E3
:1014000004033B613B690023FB605E4B1B6B5D4A41
:1014100043F0800313635B4B1B6B03F08003FB60A3
:10142000FB680023BB60574B1B6B564A43F001031C
:101430001363544B1B6B03F00103BB60BB680023B9
:101440007B60504B1B6B4F4A43F0020313634D4BC1
:101450001B6B03F002037B607B6800233B60494BFE
:101460001B6B484A43F008031363464B1B6B03F0A6
:1014700008033B603B6800224FF4C041424808F03B
:101480006DF900220321414808F068F900224FF469
:1014900080513F4808F062F9002204213D4808F0DD
:1014A0005DF94FF4C0437B610123BB610023FB6105
:1014B00000233B6207F114031946334807F09AFFF3
:1014C00048F210237B610323BB610023FB6107F11A
:1014D000140319462C4807F08DFF03237B61012379
:1014E000BB610023FB6100233B6207F11403194633
:1014F000264807F07FFF04237B610023BB610023A4
:10150000FB6107F114031946204807F073FF48F206
:1015100008037B610323BB610023FB6107F1140314
:1015200019461A4807F066FF0C237B610323BB6151
:101530000023FB6107F114031946154807F05AFF11
:101540004FF480537B610123BB610023FB610023C7
:101550003B6207F1140319460D4807F04BFF0423C3
:101560007B610123BB610023FB6103233B6207F125
:1015700014031946074807F03DFF00BF2837BD4652
:1015800080BD00BF00380240000802400000024059
:1015900000040240000C024080B500AF05F06EFE72
:1015A00000F02AF8FFF716FFFFF7E4FE00F028FB33
:1015B00005F056FA00F012FD00F046FD00F0A2F82A
:1015C000FFF72EFBFFF7BCFBFFF724FC00F05EFCEF
:1015D000FFF71EFE00F0F2FB00F0ACFC00F06AFD2D
:1015E000FFF792FE01F0BEFB05F07EFE03461846B3
:1015F00001F096FCF8E7000080B594B000AF07F169
:1016000020033022002118460EF07AF907F10C036E
:1016100000221A605A609A60DA601A610023BB6087
:10162000284B1B6C274A43F080531364254B1B6CDB
:1016300003F08053BB60BB6800237B60224B1B68B8
:10164000214A43F4804313601F4B1B6803F480431B
:101650007B607B6801233B624FF480337B62022313
:10166000BB634FF48003FB6304233B64A8237B64C8
:101670000223BB640723FB6407F12003184609F02B
:10168000F1F90346002B01D000F034F80F23FB6082
:1016900002233B6100237B614FF4A053BB614FF4F5
:1016A0008053FB6107F10C030521184609F048FC43
:1016B0000346002B01D000F01DF800BF5037BD4697
:1016C00080BD00BF003802400070004080B582B08D
:1016D00000AF7860786801F051FC7B681B68044AB1
:1016E000934201D105F0ECFD00BF0837BD4680BD37
:1016F0000020004080B400AF00BFBD465DF8047B11
:101700007047000080B500AF184B194A1A60174B9C
:101710004FF482725A60154B00229A60134B4FF4BB
:101720000062DA60114B00221A61104B01225A61EB
:101730000E4B4FF400729A610C4B2022DA610B4B76
:1017400000221A62094B00225A62084B00229A6258
:10175000064B0A22DA62054809F030FE0346002BE8
:1017600001D0FFF7C7FF00BF80BD00BF08100020F9
:10177000003C004080B58AB000AF786007F11403E8
:1017800000221A605A609A60DA601A617B681B68EE
:101790001D4A934234D100233B611C4B1B6C1B4AF6
:1017A00043F400431364194B1B6C03F400433B6187
:1017B0003B690023FB60154B1B6B144A43F0040389
:1017C0001363124B1B6B03F00403FB60FB684FF4C5
:1017D000E0537B610223BB610023FB6103233B6277
:1017E00006237B6207F114031946094807F002FE3D
:1017F00000220021332006F0F3FF332007F00CF81D
:1018000000BF2837BD4680BD003C00400038024084
:101810000008024080B483B000AF00237B60104B0F
:101820005B6C0F4A43F4804353640D4B5B6C03F4D1
:1018300080437B607B6800233B60094B1B6C084A3C
:1018400043F080531364064B1B6C03F080533B60E2
:101850003B6800BF0C37BD465DF8047B704700BF96
:101860000038024080B58CB000AF78600023FB6286
:101870000023BB62002279682D2006F0B1FF2D20E5
:1018800006F0CAFF0023FB601F4B1B6C1E4A43F48B
:10189000807313641C4B1B6C03F48073FB60FB6848
:1018A00007F1100207F114031146184609F054FD20
:1018B00009F03EFD03465B00FB62FB6A134AA2FB94
:1018C00003239B0C013BBB62114B124A1A60104B65
:1018D00040F2E732DA600E4ABB6A53600C4B0022DA
:1018E0001A610B4B00229A6009480AF06BFA034612
:1018F000002B04D106480AF090FA034600E00123C9
:1019000018463037BD4680BD0038024083DE1B4399
:10191000601000200020004080B400AF00BFBD4632
:101920005DF8047B704780B400AFFEE780B400AF81
:10193000FEE780B400AFFEE780B400AFFEE780B4FE
:1019400000AF00BFBD465DF8047B704780B400AFB8
:1019500000BFBD465DF8047B704780B400AF00BF98
:10196000BD465DF8047B704780B400AF00BFBD4644
:101970005DF8047B7047000080B500AF054805F0B6
:1019800026FD054805F023FD044805F020FD00BFB5
:1019900080BD00BF880E0020E00D0020D00E00208A
:1019A00080B500AF03480AF08FFB03480AF08CFBB8
:1019B00000BF80BDA01000206010002080B500AFE7
:1019C00002480AF035F800BF80BD00BF08100020B3
:1019D00080B500AF02480AF077FB00BF80BD00BFB2
:1019E0006011002080B500AF02480AF06DFB00BF17
:1019F00080BD00BF2012002080B500AF024807F074
:101A000091F800BF80BD00BF180F002080B500AF67
:101A1000024807F087F800BF80BD00BF280E0020F5
:101A200080B500AF024807F07DF800BF80BD00BF61
:101A3000780F002080B500AF024807F0F8FF00BF24
:101A400080BD00BFA815002080B400AF0123184658
:101A5000BD465DF8047B704780B582B000AF78600A
:101A600039600DF0F3FE034616221A604FF0FF3383
:101A700018460837BD4680BD80B582B000AF78609B
:101A80004FF0FF317868FFF7E7FFFEE780B586B0DB
:101A900000AFF860B9607A6000237B610AE0AFF3C1
:101AA00000800146BB685A1CBA60CAB21A707B69D2
:101AB00001337B617A697B689A42F0DB7B68184668
:101AC0001837BD4680BD80B586B000AFF860B960FC
:101AD0007A6000237B6109E0BB685A1CBA601B78FE
:101AE0001846AFF300807B6901337B617A697B68BC
:101AF0009A42F1DB7B6818461837BD4680BD80B43A
:101B000083B000AF78604FF0FF3318460C37BD4606
:101B10005DF8047B704780B483B000AF78603960B3
:101B20003B684FF400525A60002318460C37BD46FC
:101B30005DF8047B704780B483B000AF7860012308
:101B400018460C37BD465DF8047B704780B485B0FD
:101B500000AFF860B9607A60002318461437BD46BC
:101B60005DF8047B7047000080B586B000AF7860F8
:101B7000144A154BD31A7B617B693B61134B1B687D
:101B8000002B02D1114B124A1A60104B1A687B6865
:101B900013443A699A4207D20DF058FE03460C22CC
:101BA0001A604FF0FF3309E0084B1B68FB60074BDE
:101BB0001A687B681344054A1360FB681846183797
:101BC000BD4680BD0000022000040000D00C0020B3
:101BD000A81E002080B400AF084BD3F88830074A15
:101BE00043F47003C2F88830044B4FF000629A60EF
:101BF00000BFBD465DF8047B704700BF00ED00E00C
:101C000080B59AB000AF07F1580300221A605A60FD
:101C10009A60DA6007F1440300221A605A609A6001
:101C2000DA601A6107F13C0300221A605A6007F17A
:101C3000200300221A605A609A60DA601A615A61C1
:101C40009A613B462022002118460DF059FE594B5F
:101C5000594A1A60574B00225A60564B60229A60CC
:101C6000544B41F26702DA60524B00221A61514B29
:101C700000225A614F4B80229A614E480AF0A2F826
:101C80000346002B01D0FFF735FD4FF48053BB65B1
:101C900007F15803194647480AF0E4FB0346002BB6
:101CA00001D0FFF727FD43480AF0DBF80346002B7D
:101CB00001D0FFF71FFD00237B641023BB6407F1F5
:101CC000440319463B480AF091FC0346002B01D01F
:101CD000FFF710FD7023FB6380233B6407F13C0397
:101CE000194634480BF08AF80346002B01D0FFF761
:101CF00001FD70233B6200237B620023BB62002353
:101D0000FB6200233B6300237B630023BB6307F17B
:101D100020030022194627480AF0DEFA0346002B6A
:101D200001D0FFF7E7FC07F1200304221946214800
:101D30000AF0D2FA0346002B01D0FFF7DBFC07F1D3
:101D40002003082219461B480AF0C6FA0346002B56
:101D500001D0FFF7CFFC07F120030C2219461548EC
:101D60000AF0BAFA0346002B01D0FFF7C3FC4FF488
:101D700000633B604FF480637B600023BB60002303
:101D8000FB6000233B614FF400537B610023FB6148
:101D90003B46194607480BF0ADF80346002B01D02F
:101DA000FFF7A8FC034800F079FB00BF6837BD4689
:101DB00080BD00BFA01100200000014080B58AB0A6
:101DC00000AF07F1200300221A605A603B1D002279
:101DD0001A605A609A60DA601A615A619A612A4BF5
:101DE0004FF080421A60284B00225A60264B602236
:101DF0009A60254B40F63302DA60234B00221A61C9
:101E0000214B00229A6120480AF02BF80346002B50
:101E100001D0FFF76FFC00233B6280237B6207F158
:101E20002003194618480AF0E9FF0346002B01D0A9
:101E3000FFF760FC60237B6040F63303BB60022346
:101E4000FB6000237B613B1D082219460E480AF007
:101E500043FA0346002B01D0FFF74CFC0023BB6084
:101E60000023FB603B1D0C22194607480AF034FA98
:101E70000346002B01D0FFF73DFC034800F00EFBAA
:101E800000BF2837BD4680BDE011002080B58CB072
:101E900000AF07F10C032422002118460DF030FD9D
:101EA0003B1D00221A605A60204B214A1A601F4BCA
:101EB00000225A601D4B00229A601C4B4FF6FF72A5
:101EC000DA601A4B00221A61184B00229A61032330
:101ED000FB6000233B6101237B610023BB61042382
:101EE000FB6100233B6201237B620023BB6204236E
:101EF000FB6207F10C0319460C480AF01BF8034675
:101F0000002B01D0FFF7F6FB00237B600023BB60B2
:101F10003B1D194605480AF071FF0346002B01D00E
:101F2000FFF7E8FB00BF3037BD4680BD2011002021
:101F30000004004080B58CB000AF07F10C032422F0
:101F4000002118460DF0DCFC3B1D00221A605A608F
:101F5000204B214A1A601F4B00225A601D4B002261
:101F60009A601C4B4FF6FF72DA601A4B00221A611E
:101F7000184B00229A610323FB6000233B6101237D
:101F80007B610023BB610423FB6100233B620123CF
:101F90007B620023BB620423FB6207F10C0319463A
:101FA0000C4809F0C7FF0346002B01D0FFF7A2FB46
:101FB00000237B600023BB603B1D194605480AF0E7
:101FC0001DFF0346002B01D0FFF794FB00BF303705
:101FD000BD4680BDE01000200008004080B582B002
:101FE00000AF3B4600221A605A60154B154A1A6032
:101FF000134B02225A60124B00229A60104B41F29E
:102000006702DA600E4B00229A610D4809F0DAFE91
:102010000346002B01D0FFF76DFB20233B6000231C
:102020007B603B46194606480AF0E8FE0346002B53
:1020300001D0FFF75FFB00BF0837BD4680BD00BF82
:10204000601100200010004080B582B000AF3B4618
:1020500000221A605A60154B154A1A60134B63220E
:102060005A60124B00229A60104B41F26702DA600C
:102070000E4B00229A610D4809F0A4FE0346002B86
:1020800001D0FFF737FB20233B6000237B603B46FA
:10209000194606480AF0B2FE0346002B01D0FFF7AE
:1020A00029FB00BF0837BD4680BD00BF20120020BD
:1020B0000014004080B59AB000AF07F15803002229
:1020C0001A605A609A60DA6007F1440300221A60CD
:1020D0005A609A60DA601A6107F13C0300221A60C4
:1020E0005A6007F1200300221A605A609A60DA6091
:1020F0001A615A619A613B462022002118460DF070
:10210000FFFB594B594A1A60574B00225A60564BF5
:1021100060229A60544B41F26702DA60524B00220F
:102120001A61514B00225A614F4B00229A614E486E
:1021300009F048FE0346002B01D0FFF7DBFA4FF40D
:102140008053BB6507F15803194647480AF08AF9DE
:102150000346002B01D0FFF7CDFA434809F081FE7A
:102160000346002B01D0FFF7C5FA00237B64002350
:10217000BB6407F1440319463B480AF037FA0346AB
:10218000002B01D0FFF7B6FA7023FB6380233B647A
:1021900007F13C03194634480AF030FE0346002B91
:1021A00001D0FFF7A7FA70233B6200237B62002374
:1021B000BB620023FB6200233B6300237B6300239D
:1021C000BB6307F120030022194627480AF084F870
:1021D0000346002B01D0FFF78DFA07F120030422FC
:1021E000194621480AF078F80346002B01D0FFF782
:1021F00081FA07F12003082219461B480AF06CF8FF
:102200000346002B01D0FFF775FA07F120030C22DB
:10221000194615480AF060F80346002B01D0FFF775
:1022200069FA4FF400633B604FF480637B600023E6
:10223000BB600023FB6000233B614FF400537B61D4
:102240000023FB613B46194607480AF053FE03464C
:10225000002B01D0FFF74EFA034800F01FF900BF32
:102260006837BD4680BD00BFA010002000040140BB
:1022700080B586B000AF78607B681B68344A9342B3
:102280000ED100237B61334B5B6C324A43F0010378
:102290005364304B5B6C03F001037B617B6952E05C
:1022A0007B681B682C4A934216D100233B61294B63
:1022B0001B6C284A43F010031364264B1B6C03F07D
:1022C00010033B613B6900220021362006F088FAAA
:1022D000362006F0A1FA36E07B681B681F4A93425D
:1022E00016D10023FB601B4B1B6C1A4A43F02003E2
:1022F0001364184B1B6C03F02003FB60FB68002287
:102300000021372006F06CFA372006F085FA1AE033
:102310007B681B68124A934215D10023BB600D4BAA
:102320005B6C0C4A43F0020353640A4B5B6C03F092
:102330000203BB60BB68002200212D2006F050FA8A
:102340002D2006F069FA00BF1837BD4680BD00BFDA
:10235000000001400038024000100040001400401E
:102360000004014080B485B000AF78607B681B68D2
:10237000B3F1804F0DD10023FB60094B1B6C084A61
:1023800043F001031364064B1B6C03F00103FB6075
:10239000FB6800BF1437BD465DF8047B704700BF83
:1023A0000038024080B58CB000AF786007F11C03A4
:1023B00000221A605A609A60DA601A617B681B68B2
:1023C000324A93422CD10023BB61314B1B6C304A03
:1023D00043F0020313642E4B1B6C03F00203BB613A
:1023E000BB6900237B612A4B1B6B294A43F0020324
:1023F0001363274B1B6B03F002037B617B69302364
:10240000FB6102233B6200237B620023BB62022349
:10241000FB6207F11C0319461E4806F0EBFF30E093
:102420007B681B681C4A93422BD100233B61184BED
:102430001B6C174A43F004031364154B1B6C03F029
:1024400004033B613B690023FB60114B1B6B104A8B
:1024500043F0020313630E4B1B6B03F00203FB609C
:10246000FB68C023FB6102233B6200237B620023E5
:10247000BB620223FB6207F11C031946054806F004
:10248000B9FF00BF3037BD4680BD00BF000400402B
:1024900000380240000402400008004080B58EB0C1
:1024A00000AF786007F1240300221A605A609A6036
:1024B000DA601A617B681B68654A93423ED100234B
:1024C0003B62644B1B6B634A43F002031363614B33
:1024D0001B6B03F002033B623B6A0023FB615D4B15
:1024E0001B6B5C4A43F0010313635A4B1B6B03F0F5
:1024F0000103FB61FB694FF460437B620223BB6213
:102500000023FB6200233B6301237B6307F1240369
:102510001946514806F06EFF4FF4E0637B620223D8
:10252000BB620023FB6200233B6301237B6307F153
:1025300024031946494806F05DFF84E07B681B6868
:10254000B3F1804F1FD10023BB61424B1B6B414A4B
:1025500043F0020313633F4B1B6B03F00203BB61A9
:10256000BB694FF440637B620223BB620023FB62C2
:1025700000233B6301237B6307F12403194636489C
:1025800006F038FF5FE07B681B68354A93425AD1FA
:1025900000237B612F4B1B6B2E4A43F00103136317
:1025A0002C4B1B6B03F001037B617B6900233B61B8
:1025B000284B1B6B274A43F002031363254B1B6B0D
:1025C00003F002033B613B690023FB60214B1B6B63
:1025D000204A43F0040313631E4B1B6B03F00403F8
:1025E000FB60FB6880237B620223BB620023FB62EB
:1025F00000233B6303237B6307F124031946174839
:1026000006F0F8FE03237B620223BB620023FB6219
:1026100000233B6303237B6307F1240319460E4821
:1026200006F0E8FE4FF4E0737B620223BB620023F6
:10263000FB6200233B6303237B6307F124031946FA
:10264000084806F0D7FE00BF3837BD4680BD00BF42
:102650000000014000380240000402400000024037
:102660000004014000080240DFF838D0002103E0F8
:102670000D4B5B58435004310C480D4B42189A42A5
:10268000F6D30C4A02E0002342F8043B0A4B9A427C
:10269000F9D3FFF79FFA00F037FB0DF0EFF8FEF7E4
:1026A0007BFF704700000220B40A010800000020F0
:1026B000B40C0020B40C0020A41E0020FEE7000093
:1026C00080B58AB000AFF86087ED020AC7ED010A55
:1026D0004FF000037B614FF000033B614FF00003BC
:1026E0007B624FF000033B624FF00003FB61D7EDCC
:1026F000017AF5EEC07AF1EE10FA2ADBD7ED027A14
:10270000F5EEC07AF1EE10FA11DBD7ED017A9FED0C
:10271000E47A67EE877A97ED027AB4EEE77AF1EE23
:1027200010FA01D5022300E00123BB613BE0D7EDA5
:10273000017A9FEDDC7A67EE877A97ED027AB4EE44
:10274000E77AF1EE10FA01D5032300E00223BB6122
:1027500029E0D7ED027AF5EEC07AF1EE10FA11DB3E
:10276000D7ED017A9FEDCF7A67EE877A97ED027AFF
:10277000B4EEE77AF1EE10FA01D5052300E0062366
:10278000BB6110E0D7ED017A9FEDC57A67EE877ADD
:1027900097ED027AB4EEE77AF1EE10FA01D5042350
:1027A00000E00523BB61D7ED027A9FEDBF7A67EEAB
:1027B000877AC7ED027AD7ED017A9FEDBB7A67EE93
:1027C000877AC7ED017ABB69013B052B00F25A817C
:1027D00001A252F823F000BFF12700085B2800088F
:1027E000CD2800083B290008A52900081B2A00085D
:1027F000D7ED017A9FEDAA7A67EE877A97ED027A94
:1028000077EE677AC7ED057AD7ED017A9FEDA77A63
:1028100067EE877AC7ED047AB7EE007AD7ED057ACE
:1028200037EE677AD7ED047A77EE677AB6EE007AFC
:1028300067EE877AC7ED097A97ED097AD7ED057AC1
:1028400077EE277AC7ED087A97ED087AD7ED047A04
:1028500077EE277AC7ED077A14E1D7ED017A9FED7D
:10286000907A67EE877A97ED027A77EE277AC7ED4E
:10287000057AD7ED017A9FED8A7A27EE877AD7ED30
:10288000027A77EE677AC7ED047AB7EE007AD7ED71
:10289000057A37EE677AD7ED047A77EE677AB6EE87
:1028A000007A67EE877AC7ED087A97ED087AD7ED58
:1028B000047A77EE277AC7ED097A97ED097AD7ED92
:1028C000057A77EE277AC7ED077ADBE0D7ED017A54
:1028D0009FED767A67EE877AC7ED057AD7ED027AB3
:1028E000B1EE677AD7ED017ADFED6D6A67EEA67A11
:1028F00077EE677AC7ED047AB7EE007AD7ED057AFE
:1029000037EE677AD7ED047A77EE677AB6EE007A1B
:1029100067EE877AC7ED087A97ED087AD7ED057AE2
:1029200077EE277AC7ED077A97ED077AD7ED047A25
:1029300077EE277AC7ED097AA4E0D7ED017A9FED0B
:10294000587A27EE877AD7ED027A77EE677AC7ED65
:10295000057AD7ED017A9FED567A67EE877AC7ED53
:10296000047AB7EE007AD7ED057A37EE677AD7EDBD
:10297000047A77EE677AB6EE007A67EE877AC7ED6B
:10298000077A97ED077AD7ED047A77EE277AC7EDC5
:10299000087A97ED087AD7ED057A77EE277AC7EDB2
:1029A000097A6FE0D7ED027AB1EE677AD7ED017A56
:1029B000DFED3B6A67EEA67A77EE677AC7ED057AB8
:1029C000D7ED017A9FED367A67EE877A97ED027A36
:1029D00077EE677AC7ED047AB7EE007AD7ED057A1D
:1029E00037EE677AD7ED047A77EE677AB6EE007A3B
:1029F00067EE877AC7ED077A97ED077AD7ED057A04
:102A000077EE277AC7ED097A97ED097AD7ED047A40
:102A100077EE277AC7ED087A34E0D7ED017A9FED9B
:102A2000247A67EE877AC7ED057AD7ED017A9FEDB4
:102A30001C7A67EE877A97ED027A77EE277AC7EDF0
:102A4000047AB7EE007AD7ED057A37EE677AD7EDDC
:102A5000047A77EE677AB6EE007A67EE877AC7ED8A
:102A6000097A97ED097AD7ED047A77EE277AC7EDE0
:102A7000077A97ED077AD7ED057A77EE277AC7EDD3
:102A8000087A00BF97ED071AD7ED080A97ED090AF3
:102A9000F86800F03AF800BF2837BD4680BD00BF97
:102AA000EFC9133FEFC913BF2DB25D3FEFC9933F8D
:102AB000EFC993BF80B586B000AFF86087ED020A1A
:102AC000C7ED010A97ED020A02F044FCB0EE407A2D
:102AD000D7ED017A67EE877AC7ED057A97ED020A9E
:102AE00002F0E8FBB0EE407AD7ED017A67EE877A24
:102AF000C7ED047AD7ED040A97ED050AF868FFF7E9
:102B0000DFFD00BF1837BD4680BD80B48DB000AF7B
:102B1000F86087ED020AC7ED010A87ED001AFB682D
:102B2000DB68FB62FB6A07EE903AB8EE677AD7ED96
:102B3000027A67EE277AFCEEE77A17EE903ABB62EC
:102B4000FB6A07EE903AB8EE677AD7ED017A67EE46
:102B5000277AFCEEE77A17EE903A7B62FB6A07EE83
:102B6000903AB8EE677AD7ED007A67EE277AFCEEF6
:102B7000E77A17EE903A3B62EFF310837B617B6953
:102B8000FB6172B600BFFB681B68BA6A5A63FB68D8
:102B90001B687A6A9A63FB681B683A6ADA63FB69A6
:102BA000BB61BB6983F3108800BF00BF3437BD46EB
:102BB0005DF8047B7047000080B582B000AF002351
:102BC0007B606AE07A6813465B001344DB00374A97
:102BD0009818374B19687A681346DB009B1A9B00DC
:102BE00028330B440633194601F0E8FEB0EE407A74
:102BF0002F4B19687A681346DB009B1A9B000B4425
:102C00002E3393F9003007EE903AF8EEE77A67EE4C
:102C1000277AC7ED007A274A7B689B001344D3EDDF
:102C2000007A97ED007A77EE677A234A7B689B00FB
:102C30001344C3ED007A1F4A7B689B0013443A6833
:102C40001A601C4A7B689B001344D3ED007AB7EEF0
:102C5000007AF4EEC77AF1EE10FA02DD4FF07E53FF
:102C600013E0144A7B689B001344D3ED007ABFEE57
:102C7000007AF4EEC77AF1EE10FA01D50F4B04E0BA
:102C80000C4A7B689B0013441B680D497A689200CC
:102C90000A4413607B6801337B607B68012B91DD04
:102CA00000BF00BF0837BD4680BD00BF1402002032
:102CB000E4020020DC0C0020E40C0020000080BFB7
:102CC000D40C002080B400AFBFF34F8F00BF064B81
:102CD000DB6803F4E0620449044B1343CB60BFF3A9
:102CE0004F8F00BF00BFFDE700ED00E00400FA05D4
:102CF00080B500AF024B034A1A60FFF7E3FF00BF45
:102D0000A41E0020EFBEADDE80B582B000AF104B38
:102D10001B68104A93420DD10D4B0F4A1A600F4B9E
:102D20003B603B6883F3088800BF0D4B1B687B60EA
:102D30007B689847064B1B682A2B04D0044B2A2239
:102D40001A60FFF7BFFF00BF0837BD4680BD00BF58
:102D5000A41E0020EFBEADDEEDFEFECA0000022084
:102D60000400FF1F80B500AF02F016FE00F0FCFC6F
:102D700002F03AFA02F074FC00F024F902F0E0FBF1
:102D800001F0E0FD04F0B0FA0346024A136000BF10
:102D900080BD00BF6012002080B500AF334BD3ED83
:102DA000007A9FED337A27EE877AF0EE006AC7EE5D
:102DB000267A9FED307A77EE877AFCEEE77A17EE87
:102DC000903A9AB22C4BA3F80920284BD3ED017A04
:102DD0009FED277A27EE877AF0EE006AC7EE267A13
:102DE0009FED247A77EE877AFCEEE77A17EE903A39
:102DF0009AB2214BA3F80B20204BD3ED007A9FED24
:102E00001C7A27EE877AF0EE006AC7EE267A9FEDED
:102E1000197A77EE877AFCEEE77A17EE903A9AB253
:102E2000154BA3F81520154BD3ED017A9FED107AC1
:102E300027EE877AF0EE006AC7EE267A9FED0D7ACC
:102E400077EE877AFCEEE77A17EE903A9AB20A4B61
:102E5000A3F8172002F0DEFF094B1B681922064970
:102E6000184603F083FC00BF80BD00BFD40C0020D7
:102E700000FEFF4600FC7F46C4020020F00C00204C
:102E8000EC06002080B500AF0B4B1B78DBB2002BAB
:102E900004D10A4B1B78DBB2002B01D0012300E0E8
:102EA000002303F00103DAB2054B1A7002F006FBAF
:102EB00002F0D4F800BF80BDB20D0020B10D00209B
:102EC000EC0C002080B582B000AF7860FFF774FE94
:102ED000786801F0F3F900BF0837BD4680BD0000F7
:102EE00080B500AF02F0E8FDFFF756FF0A4B1B78F4
:102EF000DBB2002B04D002F057FD074B00221A7002
:102F0000064B1B78DBB2002B04D002F05DFD034BB7
:102F100000221A7000BF80BDB10D0020B20D00204C
:102F200080B582B000AF7860114B1B78DBB2002B0C
:102F300004D00F4B00221A70FFF7A4FF0D4B1B6843
:102F40007A689A4205D90B4A7B6813607868FFF764
:102F5000B9FF094B1B78DBB2002B04D0064B0022D3
:102F60001A70FFF7BDFF00BF0837BD4680BD00BF28
:102F7000ED0C002060120020EE0C002080B483B025
:102F800000AF78607B681A680A4B1B689A4202D1CE
:102F9000094B01221A707B681A68084B1B689A4219
:102FA00002D1074B01221A7000BF0C37BD465DF8F5
:102FB000047B704760110020ED0C002020120020DF
:102FC000EE0C002080B500AF2E4B1B6840F633029C
:102FD0005A632C4B1B6840F633029A63294B1B68DB
:102FE00040F63302DA63284B1B6840F633025A631B
:102FF000254B1B6840F633029A63234B1B6840F64F
:103000003302DA631F4B1B6832221A641E4B1B68A3
:1030100032221A6400211B4808F04EFF042119488F
:1030200008F04AFF0821174808F046FF0C21154810
:1030300008F042FF0021144808F03EFF0421124826
:1030400008F03AFF0821104808F036FF0C210E481E
:1030500008F032FF0D4808F0E0FE0D4808F0DDFEF4
:103060003C210C4808F0F8FF3C210B4808F0F4FF25
:1030700008210A4808F020FF0C21084808F01CFF2E
:1030800000BF80BDA0110020A01000206011002012
:103090002012002020110020E0100020E01100206C
:1030A00080B485B000AF0346FB800B46BB8013465F
:1030B0007B80FA88BB8813439BB21AB2B7F90230FF
:1030C000C3F30A031BB213431BB2FB81FB891846EF
:1030D0001437BD465DF8047B704780B582B000AF01
:1030E00078607B6858687B681B890122194606F066
:1030F00035FB0A2004F004F900BF0021786800F0D5
:103100000DF8034603F48063002BF6D1012004F090
:10311000F7F800BF0837BD4680BD000080B586B017
:1031200002AF78600B467B807B68D8687B681B8A1F
:103130000022194606F012FB012000F035FB0023A7
:10314000FB817B88002219464FF40040FFF7A8FF5F
:103150000346BB814BF6EF637B817B68186807F100
:103160000C014FF47A73012208F08CF97B68D8685F
:103170007B681B8A0122194606F0F0FA012000F054
:1031800013FB7B68D8687B681B8A0022194606F00F
:10319000E5FA012000F008FB7B68186807F10A02D5
:1031A00007F10E014FF47A730093012308F09EFAA1
:1031B000012000F0F9FA7B68D8687B681B8A01223D
:1031C000194606F0CBFA012000F0EEFA7B894BF6A7
:1031D000EF62934206D1074B074A40F26911074854
:1031E0000CF016FB7B89C3F30A039BB21846103719
:1031F000BD4680BDAC08010824090108C0080108CB
:1032000080B584B000AF78600B467B804FF480516E
:103210007868FFF783FF0346FB81FB8923F4F8639B
:10322000FB81FA897B881343FB81FB891A464FF4A3
:103230008051786800F067F800BF1037BD4680BD48
:1032400080B584B000AF78600B46FB704FF48051BE
:103250007868FFF763FF0346FB81FB8923F03003A7
:10326000FB81FB789AB2FB891343FB81FB891A46E9
:103270004FF48051786800F046F800BF1037BD4623
:1032800080BD80B584B000AF78600B46FB704FF412
:1032900080517868FFF742FF0346FB81FB8923F0EA
:1032A0000803FB81FB789AB2FB891343FB81FB89FE
:1032B0001A464FF48051786800F025F800BF1037A7
:1032C000BD4680BD80B584B000AF78600B46FB7012
:1032D0004FF4C0517868FFF721FF0346FB81FB895B
:1032E00023F00C03FB81FB789AB2FB891343FB812B
:1032F000FB891A464FF4C051786800F004F800BF0B
:103300001037BD4680BD80B584B000AF78600B46F5
:103310007B8013463B807B68D8687B681B8A0022D1
:10332000194606F01BFA012000F03EFA3A887B8825
:1033300019460020FFF7B4FE0346FB817B6818683E
:1033400007F10E014FF47A73012208F09BF8012077
:1033500000F02AFA7B68D8687B681B8A012219462C
:1033600006F0FCF9012000F01FFA00BF1037BD463F
:1033700080BD80B584B000AF786039603B6893F859
:103380002330002B00F0F4800023FB81FB891946D9
:103390007868FFF7C3FE0346BB81BB8903F48063F3
:1033A000002B14BF01230023DAB23B681A70BB89DB
:1033B00003F40073002B14BF01230023DAB23B682F
:1033C0005A70BB8903F48073002B14BF01230023C0
:1033D000DAB23B689A70BB8903F08003002B14BFFC
:1033E00001230023DAB23B68DA70BB8903F04003A3
:1033F000002B14BF01230023DAB23B681A71BB898A
:1034000003F02003002B14BF01230023DAB23B6832
:103410005A71BB8903F01003002B14BF0123002352
:10342000DAB23B689A71BB8903F00803002B14BF22
:1034300001230023DAB23B68DA71BB8903F004038D
:10344000002B14BF01230023DAB23B681A72BB8938
:1034500003F00203002B14BF01230023DAB23B6800
:103460005A72BB8903F00103002B14BF0123002310
:10347000DAB23B689A723B68BA895A834FF40063A8
:10348000FB81FB8919467868FFF748FE0346BB813C
:10349000BB8903F08003002B14BF01230023DAB2A1
:1034A0003B681A73BB8903F00F039AB23B68DA8159
:1034B0003B68BA899A834FF48053FB81FB89194694
:1034C0007868FFF72BFE0346BB81BB89DBB203F0B4
:1034D0000303DAB23B681A74BB89DBB203F004035E
:1034E000DAB23B685A74BB89DBB203F00803DAB284
:1034F0003B689A74BB89DBB203F03003DAB23B68F5
:10350000DA74BB8903F4F8639AB23B689A823B6829
:10351000BA89DA834FF4C053FB81FB891946786876
:10352000FFF7FCFD0346BB81BB89DBB203F003035D
:10353000DAB23B689A75BB89DBB203F00C03DAB2EE
:103540003B68DA75BB89DBB203F03003DAB23B6863
:103550001A76BB89DBB203F04003DAB23B685A76D5
:103560003B68BA891A843B68002283F8232000BF95
:1035700000BF1037BD4680BD80B584B000AF786015
:1035800039603B68002283F822203B68002283F8E0
:103590002320012003F0B4FE0023FB81FB891946A0
:1035A0007868FFF7BBFD0346BB81BB8903F48063EA
:1035B000002B14BF01230023DAB23B681A70BB89C9
:1035C00003F40073002B14BF01230023DAB23B681D
:1035D0005A70BB8903F48073002B14BF01230023AE
:1035E000DAB23B689A70BB8903F08003002B14BFEA
:1035F00001230023DAB23B68DA70BB8903F0400391
:10360000002B14BF01230023DAB23B681A71BB8977
:1036100003F02003002B14BF01230023DAB23B6820
:103620005A71BB8903F01003002B14BF0123002340
:10363000DAB23B689A71BB8903F00803002B14BF10
:1036400001230023DAB23B68DA71BB8903F004037B
:10365000002B14BF01230023DAB23B681A72BB8926
:1036600003F00203002B14BF01230023DAB23B68EE
:103670005A72BB8903F00103002B14BF01230023FE
:10368000DAB23B689A724FF40063FB81FB891946FA
:103690007868FFF743FD0346BB81BB8903F08003D5
:1036A000002B14BF01230023DAB23B681A73BB89D5
:1036B00003F00F039AB23B68DA814FF48053FB8129
:1036C000FB8919467868FFF729FD0346BB81BB8952
:1036D000DBB203F00303DAB23B681A74BB89DBB2D6
:1036E00003F00403DAB23B685A74BB89DBB203F01F
:1036F0000803DAB23B689A74BB89DBB203F030038B
:10370000DAB23B68DA74BB8903F4F8639AB23B68B7
:103710009A824FF4C053FB81FB8919467868FFF702
:10372000FDFC0346BB81BB89DBB203F00303DAB2C5
:103730003B689A75BB89DBB203F00C03DAB23B68D5
:10374000DA75BB89DBB203F03003DAB23B681A7674
:10375000BB89DBB203F04003DAB23B685A7600BFA4
:103760001037BD4680BD000080B400AF0C4BDB6855
:1037700003F08073002B0ED1094BDB68084A43F03D
:103780008073D360074B00225A60064B1B68054AC2
:1037900043F00103136000BFBD465DF8047B704732
:1037A000F0ED00E0001000E080B485B000AF78607C
:1037B0000D4B5B68FB600D4B1B680D4AA2FB03239E
:1037C0009A0C7B6802FB03F3BB6000BF064B5A6890
:1037D000FB68D31ABA689A42F8D800BF00BF143702
:1037E000BD465DF8047B7047001000E0000000203B
:1037F00083DE1B4380B582B000AF87ED010AC7EDC1
:10380000000AD7ED017A9FED097A67EE877AB0EE6C
:10381000670A01F04FFDB0EE407AD7ED007A67EE0F
:10382000277AB0EE670A0837BD4680BD0000B44372
:1038300080B483B000AF87ED010AC7ED000AD7ED71
:10384000017AB6EE007AF4EEC77AF1EE10FA02D8F9
:10385000B7EE007A01E0BFEE007AD7ED007A67EEAE
:10386000277AB0EE670A0C37BD465DF8047B7047D7
:1038700080B483B000AF87ED010AC7ED000AD7ED31
:10388000017AB6EE007AF4EEC77AF1EE10FA02D8B9
:10389000D7ED017A05E0B7EE007AD7ED017A77EE41
:1038A000677AB1EE007A67EE877AB7EE007A37EE84
:1038B000C77AD7ED007A67EE277AB0EE670A0C3741
:1038C000BD465DF8047B704780B483B000AF87EDE0
:1038D000010AC7ED000AD7ED017A77EEA77AB7EEB5
:1038E000007A37EEC77AD7ED007A67EE277AB0EE26
:1038F000670A0C37BD465DF8047B704780B483B01F
:1039000000AF87ED010AC7ED000AD7ED017A77EE27
:10391000A77AB7EE007A37EE677AD7ED007A67EECE
:10392000277AB0EE670A0C37BD465DF8047B704716
:1039300080B483B000AF786039603B685B78DBB2FD
:10394000022B1AD13B685B889BB21A463B689B8866
:103950009BB202FB03F31A467B6893420BD33B688E
:103960005B889BB247F6FE72934204D83B685B8843
:103970009BB2002B01D1012300E00023DBB21846EB
:103980000C37BD465DF8047B704780B588B000AF4A
:10399000F860B9607A60BB689B6AFA689A4240F244
:1039A0008480BB689B68FA68D31ABA6811461846C7
:1039B000FFF7BEFF0346002B5FD0BB689B8C9BB21A
:1039C000002B5AD0BB689B6AFA68D31ABA68928CEB
:1039D00092B20132B3FBF2F101FB02F29B1A07EE45
:1039E000903AF8EE676ABB689B8C9BB207EE903A00
:1039F000B8EE677AC6EE877AC7ED067ABB68D3ED74
:103A0000087A97ED067A77EE277AC7ED057AD7ED33
:103A1000057AB7EE007AF4EEC77AF1EE10FA0ADD15
:103A2000D7ED057AFDEEE77AF8EEE77A97ED057ABD
:103A300077EE677A01E0D7ED057ABB68C3ED087AC7
:103A4000BB68D3ED087ABB6893ED067A7B68F0EE2D
:103A5000470AB0EE670A9847B0EE407ABB68D3EDEC
:103A6000077A77EE277AC7ED047ABB683A691A615C
:103A7000BB684FF000025A6114E00023FB610AE0CA
:103A8000BA68FB6904339B0013444FF000021A60CC
:103A9000FB690133FB61FB69012BF1DDBB684FF072
:103AA00000021A62BB68FA689A6200BF2037BD46FE
:103AB00080BD000080B52DED028B84B000AF786032
:103AC00039603B689B687A68D31A3A681146184691
:103AD000FFF72EFF0346002B26D03B6893ED068AA6
:103AE0003B68D3ED037AB0EE670A01F0E3FBF0EE3A
:103AF000407A68EE277A3B68C3ED047A3B6893ED21
:103B0000068A3B68D3ED037A9FED137A77EE877AC6
:103B1000B0EE670A01F0CEFBF0EE407A68EE277A4D
:103B20003B68C3ED057A10E00023FB600AE03A68C9
:103B3000FB6804339B0013444FF000021A60FB68DB
:103B40000133FB60FB68012BF1DD00BF1037BD4680
:103B5000BDEC028B80BD00BF0000B44280B586B0D2
:103B600000AF786039603B689B687A68D31A3B6124
:103B70003B6819463869FFF7DBFE0346002B52D03D
:103B80003B685B889BB2002B4DD03B6893ED067A77
:103B90003B68D3ED076A3B68D3ED067A76EEE76AB9
:103BA0003B685B889BB201331A463B69B3FBF2F179
:103BB00001FB02F29B1A07EE903AF8EE677A26EEC6
:103BC000A76A3B685B889BB207EE903AF8EEE76A1B
:103BD000C6EE267A77EE277AC7ED037A3B68D3EDF7
:103BE000037AB0EE670A01F065FBB0EE407AD7EDDC
:103BF000037A67EE277A3B68C3ED047A3B68D3ED1E
:103C0000037A9FED147A77EE877AB0EE670A01F0B7
:103C100051FBB0EE407AD7ED037A67EE277A3B6826
:103C2000C3ED057A11E000237B610AE03A687B6905
:103C300004339B0013444FF000021A607B69013388
:103C40007B617B69012BF1DD00BF00BF1837BD46EA
:103C500080BD00BF0000B44280B588B000AF78607E
:103C600039603B689B687A68D31A3A6811461846EF
:103C7000FFF75EFE0346002B40D00023FB6139E0D6
:103C8000294AFB699B00134493ED007A3A68FB696B
:103C900006339B001344D3ED007A77EE677AC7EDC5
:103CA000057AD7ED057AF5EEC07AF1EE10FA06DD69
:103CB0003A68FB6908339B0013441B6805E03A68C7
:103CC000FB690A339B0013441B683B6197ED057A3F
:103CD000D7ED047A67EE277AF1EE677AC7ED037ABB
:103CE0003A68FB6904339B001344FA681A60FB6965
:103CF0000133FB61FB69012BC2DD10E00023BB61D6
:103D00000AE03A68BB6904339B0013444FF0000299
:103D10001A60BB690133BB61BB69012BF1DD00BFD8
:103D20002037BD4680BD00BFD40C002080B582B0D6
:103D300000AF78600B4BD3ED017A7B6854331846A3
:103D4000B0EE670A01F01EFBF0EE407A7B681B695B
:103D500007EE103A67EE877AB0EE670A0837BD467D
:103D600080BD00BFB40D002080B582B000AF786088
:103D70000B4BD3ED027A7B6880331846B0EE670AAE
:103D800001F000FBF0EE407A7B685B6907EE103AC9
:103D900067EE877AB0EE670A0837BD4680BD00BF80
:103DA000B40D002080B582B000AF78600B4BD3ED2E
:103DB000037A7B68AC331846B0EE670A01F0E2FA8A
:103DC000F0EE407A7B689B6907EE103A67EE877ADF
:103DD000B0EE670A0837BD4680BD00BFB40D0020B5
:103DE00080B582B000AF78600B4BD3ED057A7B686D
:103DF000D8331846B0EE670A01F0C4FAF0EE407A04
:103E00007B68DB6907EE103A67EE877AB0EE670AE7
:103E10000837BD4680BD00BFB40D002080B584B01A
:103E200000AF87ED010A3860D7ED017AF5EE407AF0
:103E3000F1EE10FA02D14FF0000327E0D7ED017A3E
:103E4000F5EEC07AF1EE10FA01DB144B01E04FF011
:103E50007E53FB603B682833184697ED010A01F05A
:103E600091FA87ED020A3B68DB68D7ED027A07EE2C
:103E7000103A67EE877AC7ED027A97ED027AD7EDAE
:103E8000037A67EE277AC7ED027ABB6807EE903AAD
:103E9000B0EE670A1037BD4680BD00BF000080BF8E
:103EA00080B588B000AF7861396187ED020A7B6028
:103EB0001346FB813B699B687A699A4247D93B6903
:103EC0009B687A69D31AFA890132B3FBF2F101FBDC
:103ED00002F29B1A07EE903AF8EE676AFB8907EE4A
:103EE000903AB8EE677AC6EE877AC7ED077A3B69F3
:103EF000D3ED017A97ED077A77EE277AC7ED067A48
:103F0000D7ED067AB7EE007AF4EEC77AF1EE10FA42
:103F10000ADDD7ED067AFDEEE77AF8EEE77A97ED5F
:103F2000067A77EE677A01E0D7ED067A3B69C3ED52
:103F3000017A3B69D3ED017A7B68D7ED020AB0EED6
:103F4000670A9847F0EE407A3B69C3ED007A3B6917
:103F50007A699A603B691B6807EE903AB0EE670A8F
:103F60002037BD4680BD000080B584B000AF7860CA
:103F70001E4BD3ED017A1E4B1B6824331846B0EE5E
:103F8000670A01F0FFF987ED030A184BD3ED027AB7
:103F9000174B1B6850331846B0EE670A01F0F2F970
:103FA00087ED020AD7ED037AF5EEC07AF1EE10FA4A
:103FB00014DDDFED106A97ED037AC6EE877AFCEE2A
:103FC000E77A17EE903A9AB20B4B97ED020A0B493B
:103FD0007868FFF765FFF0EE407A01E0DFED087AE0
:103FE000B0EE670A1037BD4680BD00BFB40D00209B
:103FF000E002002000007A4431380008F80C00206C
:104000000000000080B584B000AF78601E4BD3ED97
:10401000037A1E4B1B687C331846B0EE670A01F02A
:10402000B1F987ED030A184BD3ED037A174B1B68E0
:10403000A8331846B0EE670A01F0A4F987ED020A2A
:10404000D7ED037AF5EEC07AF1EE10FA14DDDFED6C
:10405000106A97ED037AC6EE877AFCEEE77A17EEE0
:10406000903A9AB20B4B97ED020A0B497868FFF72A
:1040700017FFF0EE407A01E0DFED087AB0EE670A54
:104080001037BD4680BD00BFB40D0020E002002007
:1040900000007A4431380008040D002000000000C0
:1040A00080B586B000AFF86087ED020A79601346EC
:1040B000FB70786897ED020AFFF7B0FE87ED050AFE
:1040C000FB78002B3BD07868FFF730FEB0EE407AEB
:1040D000D7ED027A67EE277A97ED057A77EE677A61
:1040E000C7ED057A7868FFF73FFEB0EE407AD7ED6E
:1040F000027A67EE277A97ED057A77EE677AC7ED51
:10410000057A7868FFF74EFEB0EE407AD7ED027A76
:1041100067EE277A97ED057A77EE677AC7ED057A2D
:104120007868FFF75DFEB0EE407AD7ED027A67EE71
:10413000277A97ED057A77EE677AC7ED057A7B697E
:1041400007EE903AB0EE670A1837BD4680BD80B4DE
:1041500083B000AF03463960FB71FB79082B0AD0AE
:10416000082B11DC022B02DC002B07DC0CE0033BEC
:10417000042B09D805E03B689B6807E03B681B6897
:1041800004E03B685B6801E04FF0000307EE903A03
:10419000B0EE670A0C37BD465DF8047B704700003F
:1041A00080B52DED028B8CB000AFF8607A601A46B6
:1041B0000B46FB721346BB723C4B1B6A7B623C4B4B
:1041C0001968FA7A13469B0113449B00D0330B44C1
:1041D00004333B62FB7A374A9B00134493ED007A29
:1041E000FB7A7A6A06339B001344D3ED007A77EEAC
:1041F000677ABA7A7B68396AB0EE670AF8689847D6
:1042000087ED0B0A0023BB621FE0284ABB6A52F805
:1042100023307B61FB7A7A6904339B00134493ED6E
:10422000008A7B691B78DBB2396A1846FFF78FFF7B
:10423000F0EE407A68EE277A97ED0B7A77EE277AE0
:10424000C7ED0B7ABB6A0133BB62BB6A0A2BDCDDAC
:104250003B6A1B6AD7ED0B7A07EE103A67EE877A56
:10426000C7ED077AFB7A144A9B001344D3ED007A1A
:104270000F4B1968FA7A13469B0113449B000B44B9
:10428000F0339B6807EE103A67EE877AC7ED067A3F
:1042900097ED077AD7ED067A77EE677AB0EE670A80
:1042A0003037BD46BDEC028B80BD00BF0C00002046
:1042B000E0020020D40C0020E40C002080B588B07F
:1042C00000AF78600023FB616FE05C4AFB6952F845
:1042D0002330FB60FB681B78DBB2013B072B60D807
:1042E00001A252F823F000BF094300081B43000855
:1042F0002D43000855430008694300087D4300082A
:1043000041430008914300084C4AFB6952F82330AE
:1043100019467868FFF7CEFB44E0484AFB6952F83B
:10432000233019467868FFF719FC3BE0434AFB69E4
:1043300052F82330424A19467868FFF726FB31E0ED
:104340003E4AFB6952F823303E4A19467868FFF727
:104350001CFB27E0394AFB6952F823303A4A1946D8
:104360007868FFF712FB1DE0344AFB6952F82330EE
:10437000364A19467868FFF708FB13E02F4AFB69B5
:1043800052F82330324A19467868FFF7FEFA09E0FE
:104390002A4AFB6952F8233019467868FFF75CFC1B
:1043A00000E000BFFB690133FB61FB690B2B8CDD77
:1043B00000F00CFC0346FB75FB7D264A0021786863
:1043C000FFF7EEFE87ED060AFB7D002B23D0786811
:1043D000FFF7CAFDF0EE407A1F4B1B685B6807EEE3
:1043E000103A67EE877A97ED067A77EE277AC7ED6F
:1043F000067A7868FFF706FEF0EE407A164B1B68E7
:104400009B6807EE103A67EE877A97ED067A77EEAB
:10441000277AC7ED067A114ABB691360FB7D0D4A06
:1044200001217868FFF7BCFE87ED040A0B4A3B695F
:10443000536000BF2037BD4680BD00BF0C00002088
:1044400031380008FD380008F537000871380008D9
:10445000C9380008A1400008E0020020F00C00204C
:1044600080B588B000AF78603960634B1B68D3F8C3
:1044700022307B617B685B68DA687B685B681B68FD
:1044800052085A627B685B681B685B6A3B61002369
:10449000FB611BE0FB6907EE903AB8EEE77AD7EDD7
:1044A000057A67EE277A9FED557A67EE877AC7ED32
:1044B000027AD7ED020A9FED520A3868FEF7FAFA3F
:1044C000142002F01DFFFB690133FB61FB69632BC4
:1044D000E0DD4FF47A7002F013FF3A697B685B68A5
:1044E0001B685B6AD31AFB607B685B68DA687B6871
:1044F0005B681B6852085A627B685B681B685A6A73
:104500007B68DA607B68DA68FB681A447B689A60CB
:104510000023BB610023BB6111E0BB6907EE903A49
:10452000F8EEE77AD7ED050AB0EE670A3868FEF7CD
:10453000C1FA022002F0E4FEBB690133BB61BB6932
:104540005A2BEADD7B685B681B685A6A7B68DB680C
:104550009A4203D97B6801221A7502E07B68FF2228
:104560001A75FA2002F0CCFE5A23BB6111E0BB6938
:1045700007EE903AF8EEE77AD7ED050AB0EE670A53
:104580003868FEF797FA012002F0BAFEBB69013BDA
:10459000BB61BB6913F15A0FE9DAFA2002F0B0FEF1
:1045A0006FF05903BB6111E0BB6907EE903AF8EE7A
:1045B000E77AD7ED050AB0EE670A3868FEF77AFAAF
:1045C000012002F09DFEBB690133BB61BB69002B7A
:1045D000EADDBB6907EE903AF8EEE77ADFED080A0C
:1045E000B0EE670A3868FEF765FA7B6801221A7038
:1045F00000BF2037BD4680BDE40200200AD7233C1F
:10460000000000000000000080B58CB000AF7860B2
:1046100039607B685B68DA687B685B681B68520896
:104620005A620023FB621FE0414B1B68D3F8223023
:10463000FA6A07EE902AF8EEE77A07EE103A67EE8C
:10464000277A9FED3C7A67EE877AC7ED027AD7ED3D
:10465000020A9FED390A3868FEF72CFA142002F09E
:104660004FFEFB6A0133FB62FB6A632BDCDD6420D7
:1046700002F046FE7B685B681B685A6A7B68DA60FA
:104680000023BB620023BB6215E0BB6A07EE903AD1
:10469000F8EEE77A264B1B68D3F8223000EE903A0A
:1046A000B0EE670A3868FEF705FA012002F028FE2E
:1046B000BB6A0233BB62BB6AB3F5B47FE5DD7B68DE
:1046C0005B681B685A6A7B68DB689A4203D97B681F
:1046D00001221A7502E07B68FF221A75642002F03D
:1046E0000FFE4FF4B473BB6215E0BB6A07EE903A5D
:1046F000F8EEE77A0E4B1B68D3F8223000EE903AC2
:10470000B0EE670A3868FEF7D5F9012002F0F8FD2F
:10471000BB6A023BBB62BB6A002BE6DA0023BB62CA
:104720007B685B681B685B6AFB6100237B622AE035
:10473000E40200200AD7233C000000007E4B1B68E7
:10474000D3F822307A6A07EE902AF8EEE77A07EE7D
:10475000103A67EE277A9FED797A67EE877AC7ED90
:10476000037ABB6A07EE903AF8EEE77AD7ED030AD0
:10477000B0EE670A3868FEF79DF90A2002F0C0FD26
:104780007B6A01337B627B6A632BD7DD0A2002F0F0
:10479000B7FD7B685B681B685B6ABB617B685B68B5
:1047A0001B685B6A3B623B6ABB617B6893F91430B0
:1047B0005B00BA6A1344BB62BB6A07EE903AF8EE3C
:1047C000E77A5D4B1B68D3F8223000EE903AB0EEEA
:1047D000670A3868FEF76EF9012002F091FD7B68E8
:1047E0005B681B685B6A3B62BA693B6A9A42DAD9CA
:1047F000BB697B617B6893F914305B00BA6AD31A9A
:10480000BB62BB6A07EE903AF8EEE77A4A4B1B6848
:10481000D3F8223000EE903AB0EE670A3868FEF71F
:1048200049F9012002F06CFD7B685B681B685B6ADC
:104830003B623A6AFB699A42DCD83B6ABB617B689F
:1048400093F914305B00BA6AD31ABB62BB6A07EEF5
:10485000903AF8EEE77A384B1B68D3F8223000EE36
:10486000903AB0EE670A3868FEF724F9012002F0AA
:1048700047FD7B685B681B685B6A3B62BA693B6AA1
:104880009A42DAD2BB693B613A697B6913445A08A0
:104890007B689A607A693B69D31A1846FBF754FF24
:1048A00023A3D3E90023FBF7E3FC02460B461046A3
:1048B0001946FBF7C3FF02467B681A617B6893F9D0
:1048C00014305B00BA6A1344BB62BB6A07EE903ACD
:1048D000F8EEE77A184B1B68D3F8223000EE903AD6
:1048E000B0EE670A3868FEF7E5F8012002F008FD2F
:1048F0007B685B681B685B6A3B627B689B683A6AA3
:104900009A42DBD3BB6A07EE903AF8EEE77ADFED26
:104910000C0AB0EE670A3868FEF7CCF87B68012213
:104920001A7000BF3037BD4680BD00BFAFF30080B6
:104930009A9999999999E93FE40200200AD7233C72
:104940000000000080B582B000AF00237B6027E04C
:10495000174B1B685B7F012B0FD17A6813465B00F6
:104960001344DB00134A1A4413497B6851F823307F
:1049700019461046FFF748FE0FE07A6813465B00C1
:104980001344DB000B4A1A440B497B6851F823306F
:1049900019461046FFF764FD00BF7B6801337B605A
:1049A0007B68012BD4DD00BF00BF0837BD4680BD4A
:1049B000E4020020140200200400002080B489B02A
:1049C00000AF78603960274B1B685B7F012B03D1F8
:1049D0007B681B69FB6104E03B68B3F803309BB262
:1049E000FB613B689A79DB791B0213437B837B8BEA
:1049F000002B2DD07B681B78002B29D0FB69002B66
:104A000026DD7B685B681B685B6A7B617A697B6813
:104A10009B68D31A3B61FB69DA0F13445B1007EE06
:104A2000903AF8EEE77AC7ED037A3B6907EE903AE1
:104A3000F8EEE76AD7ED037A86EEA77A7B6893F9FA
:104A4000143007EE903AF8EEE77A67EE277A01E045
:104A5000DFED057AB0EE670A2437BD465DF8047BCA
:104A6000704700BFE40200200000000080B487B05F
:104A700000AF786039603B689A79DB791B02134399
:104A8000FB823B685B797B75FB8A002B35D07B7D95
:104A9000002B32D07B681B78002B2ED0FB8A07EED0
:104AA000903AF8EE676A7B7D07EE903AB8EE677A47
:104AB000C6EE877AC7ED047A7B685B681B685B6A21
:104AC000FB60FA687B68DB68D31ABB60BB6807EEE3
:104AD000903AF8EEE77A9FED0D7A67EE876AD7EDA8
:104AE000047A86EEA77A7B6893F9143007EE903A41
:104AF000F8EEE77A67EE277A01E0DFED057AB0EEAF
:104B0000670A1C37BD465DF8047B70470000B4435C
:104B10000000000080B58CB000AFF860B9607A602A
:104B2000284B1B68113303221946274803F09EFEC9
:104B3000F862244B1B68113301221946224803F006
:104B400095FEB8621F4B1B681533012219461E489B
:104B500003F08CFE78621B4B1B6819330122194647
:104B6000194803F083FE3862FA68FB6A5340FB6120
:104B7000BA68FB6A5340BB617A68FB6A53407B6149
:104B8000FA69BB6A9A420CBF01230023DAB2B96901
:104B90007B6A99420CBF01230023DBB21340DBB2D6
:104BA00019467A693B6A9A420CBF01230023DBB2A3
:104BB0000B40002B14BF01230023DBB21846303713
:104BC000BD4680BDE40200200010002080B400AF8C
:104BD000094B1B78012B06D1084B1B681B79002B56
:104BE00001D0012300E0002303F00103DBB21846EB
:104BF000BD465DF8047B7047B40D0020E402002040
:104C000080B487B000AF786039607A683B68D31AA7
:104C1000272B1DDDEFF31083FB60FB687B6172B611
:104C200000BF0E4B1B6841F26702DA630B4B1B6837
:104C300000221A64094B1B687A68DA63074B1B6809
:104C40003A681A647B693B613B6983F3108800BF53
:104C500000BF1C37BD465DF8047B7047E0110020A3
:104C60002DE9B04388B000AF87ED030AC7ED020A13
:104C70007860396097ED027AD7ED037A77EE677A3C
:104C8000C7ED077A3B68DB68D7ED077A07EE103A85
:104C900067EE877AC7ED067A7B681B681846FBF7D4
:104CA00075FD04460D463B681B69DFED3D7A07EE56
:104CB000103A87EE277A17EE100AFBF767FD4FF0E0
:104CC0000002384BFBF7D4FA02460B469046994651
:104CD0007B6893ED017AD7ED077A77EE277A17EEA6
:104CE000900AFBF753FD02460B4640464946FBF748
:104CF000BFFA02460B4620462946FBF7E9FB02466F
:104D00000B4610461946FBF7B9FD03467B61D7ED0C
:104D1000057AB7EE007AF4EEC77AF1EE10FA02DD0A
:104D20004FF07E530BE0D7ED057ABFEE007AF4EE3C
:104D3000C77AF1EE10FA01D51B4B00E07B697B616D
:104D400097ED067AD7ED057A77EE277AC7ED047AE4
:104D5000D7ED047AB7EE007AF4EEC77AF1EE10FAE6
:104D600002DD4FF07E530BE0D7ED047ABFEE007A00
:104D7000F4EEC77AF1EE10FA01D50B4B00E03B6977
:104D80003B617B687A691A607B68FA695A603B69A3
:104D900007EE903AB0EE670A2037BD46BDE8B08313
:104DA00000401C460000E03F000080BFB0B58EB060
:104DB00000AF87ED050A3861F960BA607B60D7ED16
:104DC000057AB7EE007AF4EEC77AF1EE10FA03DD59
:104DD0004FF000049B4D11E0D7ED057ABFEE007A4D
:104DE000F4EEC77AF1EE10FA03D54FF00004964DB9
:104DF00004E07869FBF7CAFC04460D46934B1B6838
:104E0000D3F81E301846FBF7C1FC02460B4620467D
:104E10002946FBF72DFA02460B4614461D467B68D1
:104E200093F900301846FBF79FFC02460B462046DC
:104E30002946FBF71DFA02460B4610461946FBF7BA
:104E40001DFD03467B634FF000033B63BB68D3ED5E
:104E5000007AB1EE677ABB68D3ED017A77EE677AB4
:104E6000BB6CC3ED047ABB6893ED007ABB68D3EDED
:104E7000017A77EE677A9FED767A67EE877ABB6C78
:104E8000C3ED057A7968F868FFF7F0FD87ED0B0A46
:104E900097ED0B0A00F0CEF987ED0A0A97ED0A0AA2
:104EA00000F058FA87ED090A97ED0A0A00F002FAB5
:104EB00087ED080ABB6C93ED047AD7ED097A27EEEB
:104EC000277ABB6CD3ED056AD7ED087A66EEA77A30
:104ED00077EE277ABB6CC3ED067ABB6C93ED057A4F
:104EE000D7ED097A27EE277ABB6CD3ED046AD7EDAC
:104EF000087A66EEA77A77EE677ABB6CC3ED077A1D
:104F0000BB6C4FF000021A62BB6CD3ED077ABB6C2E
:104F1000083379681846F0EE670A97ED0D0AFFF737
:104F20009FFEF0EE407ABB6CC3ED097ABB6C93ED4B
:104F3000087AD7ED097A27EE277ABB6CD3ED096A98
:104F4000D7ED087A66EEA77A77EE677AC7ED077A2B
:104F5000BB6C93ED097AD7ED097A27EE277ABB6C03
:104F6000D3ED086AD7ED087A66EEA77A77EE277A4E
:104F7000C7ED067AD7ED077AB1EE677AD7ED067AF4
:104F8000F1EE677AF0EE670AB0EE470A3869FDF78E
:104F900097FBBB6C93ED087ABB6CD3ED067A27EEDA
:104FA000277ABB6CD3ED096ABB6CD3ED077A66EE4A
:104FB000A77A77EE277A9FED277A67EE877AB7EEA2
:104FC000007AF4EEC77AF1EE10FA02DDF7EE007A1D
:104FD00033E0BB6C93ED087ABB6CD3ED067A27EE19
:104FE000277ABB6CD3ED096ABB6CD3ED077A66EE0A
:104FF000A77A77EE277A9FED177A67EE877AF5EE34
:10500000C07AF1EE10FA02D5DFED137A15E0BB6C31
:1050100093ED087ABB6CD3ED067A27EE277ABB6C4A
:10502000D3ED096ABB6CD3ED077A66EEA77A77EE0B
:10503000277A9FED087A67EE877AB0EE670A3837ED
:10504000BD46B0BD0000F03F0000F0BFE40200200C
:10505000EFC9133F0000074200000000B0B586B062
:1050600002AF4FF00003FB600023BB6038E0414A11
:10507000BB689B001344D3ED007A3F4ABB6852F8EB
:105080002300BA6813465B001344DB003B4A9C18BC
:10509000BB68DB003A4A9D183A4B1968BA68134658
:1050A000DB009B1A9B0028330B44991DBA681346FA
:1050B0005B0013441B01344A134400930B462A46F9
:1050C0002146B0EE670AFFF771FEB0EE407AD7EDE9
:1050D000037A77EE877AC7ED037ABB680133BB604A
:1050E000BB68012BC3DDD7ED037A9FED287A27EE4D
:1050F000877A244B1B68D3F82A30DFED247A06EE3A
:10510000903A66EEA77AB4EEE77AF1EE10FA0CDD8B
:105110001C4B1B68D3F82A30DFED1C7A07EE103ADF
:1051200067EE277AFDEEE77A15E0D7ED037A9FED7B
:10513000177A67EE877AF5EEC07AF1EE10FA02D5AB
:10514000DFED137A07E0D7ED037A9FED107A67EE73
:10515000877AFDEEE77AC7ED017A7B6828333B60FA
:105160003B687A6811461846FFF74AFD00BF1037C2
:10517000BD46B0BDF00C0020040000201402002049
:10518000700D0020E4020020100D002000300345C7
:105190000000000080B582B000AF786039607868A8
:1051A000FDF79BFF39687868FEF7E6F90821786813
:1051B000FEF767F820217868FEF742F84FF4107187
:1051C0007868FEF71DF80C217868FEF77BF83B68DD
:1051D000012283F8232039687868FEF7CAF800BFF7
:1051E0000837BD4680BD000080B582B000AF002307
:1051F0007B6015E07A681346DB009B1ADB000C4AE3
:1052000098187A681346DB009B1ADB001033084AB3
:10521000134404331946FFF7BDFF7B6801337B60FD
:105220007B68012BE6DD00BF00BF0837BD4680BDAF
:105230004402002080B485B000AF87ED010AD7EDAD
:10524000017AFDEEE77A17EE903A184A82FB0312D4
:105250001A441212DB17D31AFB60FB684FF4B472C6
:1052600002FB03F307EE903AF8EEE77A97ED017A46
:1052700077EE677AC7ED017AD7ED017AF5EEC07A5D
:10528000F1EE10FA07D5D7ED017A9FED097A77EEA6
:10529000877AC7ED017A7B6807EE903AB0EE670A2D
:1052A0001437BD465DF8047B704700BFB7600BB68E
:1052B0000000B44380B584B000AF87ED010A97EDDC
:1052C000010AFFF7B7FF87ED010AD7ED017AFDEE7E
:1052D000E77A17EE901A1D4B83FB01239A10CB1728
:1052E000D31AFB60FB6807EE903AF8EEE77AB2EE6D
:1052F000047A67EE877A97ED017A37EE677AF2EEF5
:10530000046AC7EE267AC7ED027A114AFB689B0051
:10531000134493ED007AFB6801330D4A9B0013445C
:10532000D3ED006A0A4AFB689B001344D3ED007A70
:1053300076EEE76AD7ED027A66EEA77A77EE277AFD
:10534000B0EE670A1037BD4680BD00BF676666666F
:105350003409010880B582B000AF87ED010AD7EDAE
:10536000017A9FED077A77EE877AB0EE670AFFF74A
:10537000A1FFF0EE407AB0EE670A0837BD4680BD67
:105380000000B44280B489B000AF87ED010A3860F4
:10539000D7ED017AF0EEE77AC7ED077AD7ED077A15
:1053A000F5EE407AF1EE10FA02D13B681B6858E046
:1053B000D7ED077AB7EE007AF4EEC77AF1EE10FA7D
:1053C00002DB3B689B6A4CE0D7ED077A9FED297AB8
:1053D00067EE877AC7ED067AD7ED067AFDEEE77AB3
:1053E00017EE901A244B83FB01239A10CB17D31A84
:1053F0007B617A6913469B0013445B0007EE903A89
:10540000F8EEE77A97ED067A77EE677A9FED1B7AEA
:1054100067EE877AC7ED047A3A687B699B0013448C
:1054200019680B4619467B6901333A689B0013449F
:105430001868034618463A687B699B0013441B684A
:1054400007EE900A07EE103A37EEC77AD7ED047AE6
:1054500067EE277A07EE101A77EE277AC7ED037A00
:10546000FB6807EE903AB0EE670A2437BD465DF858
:10547000047B70470000C84267666666CDCCCC3DB1
:1054800080B485B000AF03460A46FB801346BB805C
:10549000FA88BB88D31AFB60FB6807EE903AF8EEF7
:1054A000E77A9FED057A67EE877AB0EE670A1437E0
:1054B000BD465DF8047B70470000003A80B500AF40
:1054C0001A4B5B881A4A528811461846FFF7D8FFD4
:1054D000F0EE407A174BC3ED007A144B9B88144AC8
:1054E000928811461846FFF7CBFFF0EE407A114B39
:1054F000C3ED017A104B5B88104A5288114618465A
:10550000FFF7BEFFF0EE407A0A4BC3ED027A0A4B7A
:105510009B880A4A928811461846FFF7B1FFF0EEC1
:10552000407A044BC3ED037A00BF80BD880D002094
:10553000980D0020700D0020800D0020900D00209F
:1055400080B586B000AF4FF000037B614FF00003E1
:105550003B614FF00003FB604FF00003BB60642031
:1055600001F0CEFE00237B6035E0384B5B8807EE10
:10557000903AF8EEE77A97ED057A77EE277AC7ED5D
:10558000057A324B9B8807EE903AF8EEE77A97ED72
:10559000047A77EE277AC7ED047A2D4B5B8807EE05
:1055A000903AF8EEE77A97ED037A77EE277AC7ED2F
:1055B000037A274B9B8807EE903AF8EEE77A97ED4F
:1055C000027A77EE277AC7ED027A012001F098FE81
:1055D0007B6801337B607B68632BC6DD97ED057AC2
:1055E000DFED1C6AC7EE267AFCEEE77A17EE903AFA
:1055F0009AB2194B5A8097ED047ADFED166AC7EE1E
:10560000267AFCEEE77A17EE903A9AB2124B9A801D
:1056100097ED037ADFED0F6AC7EE267AFCEEE77AA4
:1056200017EE903A9AB20D4B5A8097ED027ADFED61
:10563000096AC7EE267AFCEEE77A17EE903A9AB23C
:10564000064B9A8000BF1837BD4680BD880D0020EC
:10565000800D00200000C842980D0020900D002011
:1056600080B500AF074802F039FA074802F036FA71
:10567000064802F0F1FA03220549044802F0EAFB69
:1056800000BF80BDD00E0020E00D0020880E00205D
:10569000800D002080B582B000AF786001210D48F8
:1056A00002F0A0FB03469AB20B4B1A8001210B4873
:1056B00002F098FB03469AB2074B5A800121084832
:1056C00002F090FB03469AB2034B9A8000BF083762
:1056D000BD4680BD880E0020880D0020E00D002012
:1056E000D00E00202DE9B04386B000AFF860C7E9C6
:1056F000002303F0D5FC164BB322DA600221F868D0
:1057000003F030FE00237B6117E039687B693A6B58
:1057100013441B78DBB200229846914642464B4622
:10572000002003F069FCD7E90023541C43F1000575
:10573000C7E900457B6901337B61BB8E7A699A4278
:10574000E3DB03F0CFFC00BF1837BD46BDE8B083F4
:10575000003C024080B582B002AF314B1B68314A39
:10576000104619464FF437731A460AF0BBF82E4B11
:10577000D3F8F4302B4AC2F8F4302B4BD3F8F8307E
:10578000284AC2F8F830284BD3F8DC30254AC2F852
:10579000DC30254BD3F8D430224AC2F8D430224B27
:1057A000D3F8D8301F4AC2F8D8301F4BD3F8F8319D
:1057B0001C4AC2F8F8311C4BD3F8FC31194AC2F824
:1057C000FC31194BD3F8E031164AC2F8E031164BE0
:1057D000D3F8D831134AC2F8D831134BD3F8DC319F
:1057E000104AC2F8DC310F4B4FF0FF321A704FF005
:1057F000FF325A70002262F055029A70002262F065
:105800005502DA704FF437730193064B0093074A41
:105810004FF000030A20FFF765FF00BFBD4680BDC3
:10582000E0020020641200205003002000000C0859
:1058300080B582B002AF0E4B4FF0FF321A704FF0BE
:10584000FF325A70002262F055029A70002262F014
:105850005502DA704FF437730193054B0093054AF4
:105860004FF000030A20FFF73DFF00BFBD4680BD9B
:105870005003002000000C0880B582B002AF154B29
:105880004FF0FF321A704FF0FF325A70002262F070
:1058900055029A70002262F05502DA700E4B1B68B6
:1058A0000C4AC2F811300D4B1B680A4AC2F8153079
:1058B0000B4B1B68074AC2F8193066230193054B4E
:1058C0000093084A4FF000030B20FFF70BFF00BFC7
:1058D000BD4680BDE8020020107AFF1F147AFF1F2A
:1058E000187AFF1F00000E0880B500AFFFF7C4FF55
:1058F00000BF80BD80B582B000AF194B1B687B60D4
:105900007B68184A934226D0174B1B68D3F80530A2
:10591000164AC2F80530144B1B68D3F80930134AF5
:10592000C2F80930104B1B68D3F80D300F4AC2F88B
:105930000D300E4BD3F805300C4AD2F809100B4A43
:10594000D2F80D201846FFF7E5F803461A46074B34
:105950001A71FFF791FF00BF0837BD4680BD00BF39
:1059600000000E08FFFFAAAAE4020020E8020020BF
:1059700080B582B000AF064B1B687B607B68054A30
:10598000934201D0FFF754FF00BF0837BD4680BDEA
:1059900000000C08FFFFAAAA80B500AFFFF7E8FFE0
:1059A000FFF7A8FF00BF80BD80B500AF054B1B68A7
:1059B0001B79002B02D0FFF73BFF01E0FFF7CAFE87
:1059C00000BF80BDE402002080B500AF0D4BD3F8CE
:1059D00005300C4AD2F809100A4AD2F80D201846B0
:1059E000FFF798F803461A46064B1A71054B1B79C8
:1059F000002B02D0FFF740FF01E0FFF775FF00BF6B
:105A000080BD00BFE802002080B584B000AF7860A0
:105A10007B685B889BB24FF6FF72934215D07B6820
:105A20001B889BB21A460C4B1344FB607B685B8857
:105A30009BB23A2B28BF3A237B817B6804337A8957
:105A40001946F86809F04EFF02E0044B01221A7073
:105A500000BF1037BD4680BD50030020B10D0020AF
:105A600080B584B000AF78607B685B889BB24FF6EE
:105A7000FF72934215D07B681B889BB21A460C4B71
:105A80001344FB607B685B889BB23A2B28BF3A23A8
:105A90007B817B6804337A891946F86809F022FF14
:105AA00002E0044B01221A7000BF1037BD4680BDD2
:105AB000E8020020B20D002080B400AFB44B1A7889
:105AC000B44B1A70B34B1B78012B40F04881B04B9C
:105AD000D3F80D2013461A46AF4B1B681B6A07EE1E
