:020000040800F2
:100000000000022029260008D9180008E718000877
:10001000ED180008F3180008F918000800000000A7
:10002000000000000000000000000000FF180008B1
:100030000D190008000000001B190008291900080C
:100040007D2600087D2600087D2600087D26000804
:100050007D2600087D2600087D2600087D260008F4
:100060007D2600087D2600087D2600087D260008E4
:100070007D2600087D2600087D2600087D260008D4
:100080007D2600087D260008391900087D26000815
:100090007D2600087D2600087D2600087D260008B4
:1000A0007D2600087D2600087D2600087D260008A4
:1000B0007D2600087D2600087D2600087D26000894
:1000C0007D2600087D2600087D2600087D26000884
:1000D0007D2600087D2600087D2600087D26000874
:1000E0007D2600087D2600087D2600087D26000864
:1000F0007D260008611900087D2600087D2600087D
:100100007D2600087D2600087D2600087D19000850
:100110007D2600087D26000891190008A519000811
:10012000B9190008CD190008E11900087D2600085A
:100130007D26000800000000000000007D26000869
:100140007D2600087D2600087D260008F519000898
:100150007D2600087D2600087D2600087D260008F3
:100160007D2600087D2600087D2600087D260008E3
:100170007D2600087D260008000000000000000029
:080180007D2600087D26000821
:1001900010B5054C237833B9044B13B10448AFF3C1
:1001A00000800123237010BDE80A00200000000039
:1001B0002407010808B5034B1BB103490348AFF3FB
:1001C000008008BD00000000EC0A002024070108A0
:1001D00001F0FF01102A2BDB10F0070F08D010F8F8
:1001E000013B013A8B422DD010F0070F42B3F6D1FC
:1001F000F0B441EA012141EA014122F007047FF015
:1002000000070023F0E80256083C85EA010586EA6B
:10021000010685FA47F5A3FA87F586FA47F6A5FAA7
:1002200087F68EB9EED1F0BC01F0FF0102F00702B3
:1002300032B110F8013B013A83EA010313B1F8D15E
:100240000020704701387047002D06BF354603383F
:10025000073815F0010F07D1013015F4807F02BF78
:10026000013015F4C03F0130F0BC0138704700BFC9
:1002700070B54FF0FF0C4CF4E06C1CEA11541DBF3C
:100280001CEA135594EA0C0F95EA0C0F00F0DEF807
:100290002C4481EA030621EA4C5123EA4C5350EAEC
:1002A000013518BF52EA033541F4801143F480133D
:1002B00038D0A0FB02CE4FF00005E1FB02E506F0CE
:1002C0000042E0FB03E54FF00006E1FB03569CF023
:1002D000000F18BF4EF0010EA4F1FF04B6F5007F29
:1002E00064F5407404D25FEA4E0E6D4146EB06069B
:1002F00042EAC62141EA55514FEAC52040EA5E5024
:100300004FEACE2EB4F1FD0C88BFBCF5E06F1ED8CD
:10031000BEF1004F08BF5FEA500E50F1000041EB04
:10032000045170BD06F0004646EA010140EA0200B1
:1003300081EA0301B4EB5C04C2BFD4EB0C0541EAD3
:10034000045170BD41F480114FF0000E013C00F3E8
:10035000AB8014F1360FDEBF002001F0004170BD0C
:10036000C4F10004203C35DA0C341BDC04F1140425
:10037000C4F1200500FA05F320FA04F001FA05F2B1
:1003800040EA020001F0004221F0004110EBD3707E
:1003900021FA04F642EB06015EEA430E08BF20EAAA
:1003A000D37070BDC4F10C04C4F1200500FA04F34D
:1003B00020FA05F001FA04F240EA020001F00041DF
:1003C00010EBD37041F100015EEA430E08BF20EA52
:1003D000D37070BDC4F1200500FA05F24EEA020E9A
:1003E00020FA04F301FA05F243EA020321FA04F0C9
:1003F00001F0004121FA04F220EA020000EBD37080
:100400005EEA430E08BF20EAD37070BD94F0000F7F
:100410000FD101F00046400041EB010111F4801FB3
:1004200008BF013CF7D041EA060195F0000F18BF64
:10043000704703F00046520043EB030313F4801FA0
:1004400008BF013DF7D043EA0603704794EA0C0F5A
:100450000CEA135518BF95EA0C0F0CD050EA410670
:1004600018BF52EA4306D1D181EA030101F00041ED
:100470004FF0000070BD50EA410606BF1046194615
:1004800052EA430619D094EA0C0F02D150EA013621
:1004900013D195EA0C0F05D152EA03361CBF104662
:1004A00019460AD181EA030101F0004141F0FE4101
:1004B00041F470014FF0000070BD41F0FE4141F485
:1004C000780170BD81F0004102E000BF83F000437D
:1004D00030B54FEA41044FEA430594EA050F08BFDF
:1004E00090EA020F1FBF54EA000C55EA020C7FEAA3
:1004F000645C7FEA655C00F0E2804FEA5454D4EB20
:100500005555B8BF6D420CDD2C4480EA020281EAE9
:10051000030382EA000083EA010180EA020281EA21
:100520000303362D88BF30BD11F0004F4FEA013173
:100530004FF4801C4CEA113102D0404261EB410182
:1005400013F0004F4FEA03334CEA133302D0524208
:1005500063EB430394EA050F00F0A780A4F10104C4
:10056000D5F1200E0DDB02FA0EFC22FA05F28018FE
:1005700041F1000103FA0EF2801843FA05F35941E4
:100580000EE0A5F120050EF1200E012A03FA0EFC63
:1005900028BF4CF0020C43FA05F3C01851EBE3718D
:1005A00001F0004507D54FF0000EDCF1000C7EEBAA
:1005B00000006EEB0101B1F5801F1BD3B1F5001FE8
:1005C0000CD349085FEA30004FEA3C0C04F1010407
:1005D0004FEA445212F5800F80F09A80BCF1004F30
:1005E00008BF5FEA500C50F1000041EB045141EAB2
:1005F000050130BD5FEA4C0C404141EB0101013C7B
:1006000028BFB1F5801FE9D291F0000F04BF014669
:100610000020B1FA81F308BF2033A3F10B03B3F13B
:1006200020020CDA0C3208DD02F1140CC2F10C02CB
:1006300001FA0CF021FA02F10CE002F11402D8BF29
:10064000C2F1200C01FA02F120FA0CFCDCBF41EAF5
:100650000C019040E41AA2BF01EB0451294330BDC4
:100660006FEA04041F3C1CDA0C340EDC04F11404A1
:10067000C4F1200220FA04F001FA02F340EA030078
:1006800021FA04F345EA030130BDC4F10C04C4F1BE
:10069000200220FA02F001FA04F340EA030029469E
:1006A00030BD21FA04F0294630BD94F0000F83F4E8
:1006B000801306BF81F480110134013D4EE77FEACB
:1006C000645C18BF7FEA655C29D094EA050F08BF17
:1006D00090EA020F05D054EA000C04BF19461046F8
:1006E00030BD91EA030F1EBF0021002030BD5FEA3C
:1006F000545C05D14000494128BF41F0004130BD64
:1007000014F580043CBF01F5801130BD01F00045B7
:1007100045F0FE4141F470014FF0000030BD7FEA2A
:10072000645C1ABF194610467FEA655C1CBF0B4625
:10073000024650EA013406BF52EA033591EA030F3C
:1007400041F4002130BD00BF90F0000F04BF002134
:10075000704730B54FF4806404F132044FF0000567
:100760004FF0000150E700BF90F0000F04BF0021E0
:10077000704730B54FF4806404F1320410F0004546
:1007800048BF40424FF000013EE700BF42004FEA41
:10079000E2014FEA31014FEA02701FBF12F07F43BE
:1007A00093F07F4F81F06051704732F07F4208BF75
:1007B000704793F07F4F04BF41F40021704730B57C
:1007C0004FF4607401F0004521F000411CE700BFC8
:1007D00050EA010208BF704730B54FF000050AE04B
:1007E00050EA010208BF704730B511F0004502D54C
:1007F000404261EB41014FF4806404F132045FEA4E
:10080000915C3FF4D8AE4FF003025FEADC0C18BFF6
:1008100003325FEADC0C18BF033202EBDC02C2F1E8
:10082000200300FA03FC20FA02F001FA03FE40EA7A
:100830000E0021FA02F11444BDE600BF4FEA410266
:10084000B2F1E04324BFB3F5001CDCF1FE5C0DD92E
:1008500001F0004C4FEAC0024CEA5070B2F1004F78
:1008600040EB830008BF20F00100704711F0804F7B
:1008700021D113F13872BCBF01F00040704741F440
:1008800080114FEA5252C2F11802C2F1200C10FA44
:100890000CF320FA02F018BF40F001004FEAC12328
:1008A0004FEAD32303FA0CFC40EA0C0023FA02F3CC
:1008B0004FEA4303CCE77FEA625307D150EA0133A2
:1008C0001EBF4FF0FE4040F44000704701F0004072
:1008D00040F0FE4040F40000704700BF53B94AB9F1
:1008E000002908BF00281CBF4FF0FF314FF0FF3038
:1008F00000F074B9ADF1080C6DE904CE00F006F813
:10090000DDF804E0DDE9022304B070472DE9F0478B
:10091000089D04468E46002B4DD18A42944669D9E3
:10092000B2FA82F252B101FA02F3C2F1200120FAC6
:1009300001F10CFA02FC41EA030E94404FEA1C4814
:10094000210CBEFBF8F61FFA8CF708FB16E341EA10
:10095000034306FB07F199420AD91CEB030306F196
:10096000FF3080F01F81994240F21C81023E6344B7
:100970005B1AA4B2B3FBF8F008FB103344EA03445B
:1009800000FB07F7A7420AD91CEB040400F1FF3370
:1009900080F00A81A74240F207816444023840EAAD
:1009A0000640E41B00261DB1D4400023C5E90043E6
:1009B0003146BDE8F0878B4209D9002D00F0EF8069
:1009C0000026C5E9000130463146BDE8F087B3FA9C
:1009D00083F6002E4AD18B4202D3824200F2F98084
:1009E000841A61EB030301209E46002DE0D0C5E987
:1009F000004EDDE702B9FFDEB2FA82F2002A40F0D3
:100A00009280A1EB0C014FEA1C471FFA8CFE0126D5
:100A1000200CB1FBF7F307FB131140EA01410EFB79
:100A200003F0884208D91CEB010103F1FF3802D220
:100A3000884200F2CB804346091AA4B2B1FBF7F01A
:100A400007FB101144EA01440EFB00FEA64508D93D
:100A50001CEB040400F1FF3102D2A64500F2BB807A
:100A60000846A4EB0E0440EA03409CE7C6F12007C9
:100A7000B34022FA07FC4CEA030C20FA07F401FA0F
:100A800006F31C43F9404FEA1C4900FA06F3B1FB98
:100A9000F9F8200C1FFA8CFE09FB181140EA0141FD
:100AA00008FB0EF0884202FA06F20BD91CEB01019A
:100AB00008F1FF3A80F08880884240F28580A8F1F2
:100AC00002086144091AA4B2B1FBF9F009FB101144
:100AD00044EA014100FB0EFE8E4508D91CEB0101E2
:100AE00000F1FF346CD28E456AD90238614440EA85
:100AF0000840A0FB0294A1EB0E01A142C846A64605
:100B000056D353D05DB1B3EB080261EB0E0101FA8D
:100B100007F722FA06F3F1401F43C5E900710026EA
:100B20003146BDE8F087C2F12003D8400CFA02FC40
:100B300021FA03F3914001434FEA1C471FFA8CFE50
:100B4000B3FBF7F007FB10360B0C43EA064300FB40
:100B50000EF69E4204FA02F408D91CEB030300F1DE
:100B6000FF382FD29E422DD9023863449B1B89B295
:100B7000B3FBF7F607FB163341EA034106FB0EF31E
:100B80008B4208D91CEB010106F1FF3816D28B42CB
:100B900014D9023E6144C91A46EA004638E72E4697
:100BA000284605E70646E3E61846F8E64B45A9D28F
:100BB000B9EB020864EB0C0E0138A3E74646EAE7FE
:100BC000204694E74046D1E7D0467BE7023B6144AC
:100BD00032E7304609E76444023842E7704700BF15
:100BE00080B590B000AF07F1340300221A605A605C
:100BF0009A6007F1240300221A605A609A60DA6052
:100C00003B1D2022002118460EF0C2FD3A4B3B4A04
:100C10001A60394B4FF480325A60374B00229A6089
:100C2000354B00221A61344B00221A76324B0022D7
:100C300083F82020304B4FF08052DA622E4B4FF079
:100C400060629A622C4B0022DA602B4B0122DA613F
:100C5000294B012283F83020274B01225A61264874
:100C600006F0BAFA0346002B01D000F023FD112351
:100C70007B634FF48043BB630023FB6307F13403C2
:100C800019461D4807F082FA0346002B01D000F0F8
:100C900011FD06237B620123BB620123FB6207F186
:100CA00024031946144806F043FC0346002B01D0E8
:100CB00000F000FD06237B600123BB6001237B6104
:100CC0000123FB604FF480133B624FF48033FB61E0
:100CD00000237B7600233B7600233B613B1D1946B6
:100CE000054807F0BDF80346002B01D000F0E2FCF8
:100CF00000BF4037BD4680BD4C0C002000200140A5
:100D000080B58CB000AF07F1200300221A605A6052
:100D10009A60DA603B462022002118460EF038FD2A
:100D20002A4B2B4A1A60294B4FF480325A60274BCA
:100D300000229A60254B00221A61244B00221A7669
:100D4000224B002283F82020204B0022DA601F4B28
:100D50000122DA611D4B012283F830201B4B012256
:100D60005A611A4806F038FA0346002B01D000F009
:100D7000A1FC0D233B6201237B620123BB6207F1CF
:100D800020031946114806F0D3FB0346002B01D07F
:100D900000F090FC0A233B6001237B6001233B6150
:100DA0000123BB6001237B7500233B750023FB609F
:100DB0003B461946054807F053F80346002B01D07F
:100DC00000F078FC00BF3037BD4680BDA40B00208A
:100DD0000021014080B58CB000AF07F12003002254
:100DE0001A605A609A60DA603B4620220021184659
:100DF0000EF0CEFC2A4B2B4A1A60294B4FF480325E
:100E00005A60274B00229A60254B00221A61244B1E
:100E100000221A76224B002283F82020204B002249
:100E2000DA601F4B0122DA611D4B012283F830206A
:100E30001B4B01225A611A4806F0CEF90346002BDB
:100E400001D000F037FC0C233B6201237B620123BD
:100E5000BB6207F120031946114806F069FB0346FF
:100E6000002B01D000F026FC0B233B6001237B60AC
:100E700001233B610123BB6001237B7500233B758C
:100E80000023FB603B461946054806F0E9FF034690
:100E9000002B01D000F00EFC00BF3037BD4680BDF6
:100EA000940C00200022014080B590B000AF786023
:100EB00007F12C0300221A605A609A60DA601A6106
:100EC0007B681B687F4A93427AD10023BB627E4BCA
:100ED0005B6C7D4A43F4807353647B4B5B6C03F41F
:100EE0008073BB62BB6A00237B62774B1B6B764AC5
:100EF00043F004031363744B1B6B03F004037B6226
:100F00007B6A00233B62704B1B6B6F4A43F001030B
:100F100013636D4B1B6B03F001033B623B6A2F2392
:100F2000FB6203233B6300237B6307F12C03194619
:100F3000664808F0A7F97023FB6203233B63002394
:100F40007B6307F12C031946614808F09BF9614B5C
:100F5000614A1A605F4B00225A605E4B00229A6021
:100F60005C4B0022DA605B4B4FF480621A61594B94
:100F70004FF400625A61574B4FF400529A61554B3F
:100F80004FF48072DA61534B00221A62514B0022F7
:100F90005A62504807F0E6FB0346002B01D000F0F0
:100FA00089FB7B684B4A9A634A4A7B6893630022B9
:100FB0000021122007F05CFB122007F075FBF9E01E
:100FC0007B681B68454A934240F08E800023FB619A
:100FD0003D4B5B6C3C4A43F4007353643A4B5B6C8F
:100FE00003F40073FB61FB690023BB61364B1B6B91
:100FF000354A43F004031363334B1B6B03F00403C4
:10100000BB61BB6900237B612F4B1B6B2E4A43F0F6
:10101000010313632C4B1B6B03F001037B617B69A2
:101020002F23FB6203233B6300237B6307F12C0325
:101030001946264808F026F97023FB6203233B6318
:1010400000237B6307F12C031946214808F01AF9A5
:10105000234B244A1A60224B4FF000725A60204BF7
:1010600000229A601E4B0022DA601D4B4FF4806212
:101070001A611B4B4FF400625A61194B4FF4005236
:101080009A61174B4FF48072DA61154B00221A6295
:10109000134B00225A62124807F064FB0346002BF0
:1010A00001D000F007FB7B680D4A9A630C4A7B680D
:1010B000936300220021122007F0DAFA122007F0D1
:1010C000F3FA77E0002001400038024000080240B7
:1010D00000000240DC0C00201064024000210140AE
:1010E0003C0D0020406402407B681B68334A9342F9
:1010F00060D100233B61324B5B6C314A43F4806327
:1011000053642F4B5B6C03F480633B613B690023AA
:10111000FB602B4B1B6B2A4A43F004031363284BE1
:101120001B6B03F00403FB60FB680F23FB620323CC
:101130003B6300237B6307F12C031946214808F029
:10114000A1F8214B214A1A601F4B4FF080625A6070
:101150001D4B00229A601C4B0022DA601A4B4FF4A0
:1011600080621A61184B4FF400625A61164B4FF4BB
:1011700000529A61144B4FF48072DA61124B0022D4
:101180001A62114B00225A620F4807F0EBFA03462D
:10119000002B01D000F08EFA7B680B4A9A630A4A52
:1011A0007B68936300220021122007F061FA12206D
:1011B00007F07AFA00BF4037BD4680BD00220140EB
:1011C0000038024000080240EC0B00202864024076
:1011D00080B500AF164B174A1A60154B10225A60A3
:1011E000134B00229A60124B0022DA60104B00224F
:1011F0001A610F4B00225A610D4B00221A760C4BDC
:1012000000225A760A4B00229A76094B0022DA769F
:10121000074B00221A77064B00225A77044807F042
:1012200073F80346002B01D000F044FA00BF80BDE4
:101230009C0D00200064004080B58AB000AF78604B
:1012400007F1140300221A605A609A60DA601A618A
:101250007B681B68194A93422CD100233B61184BD1
:101260001B6C174A43F000731364154B1B6C03F09F
:1012700000733B613B690023FB60114B1B6B104A01
:1012800043F0020313630E4B1B6B03F00203FB607E
:10129000FB684FF440737B610223BB610023FB6159
:1012A00003233B6209237B6207F1140319460548B7
:1012B00007F0E8FF00BF2837BD4680BD006400404E
:1012C000003802400004024080B500AF064B074AD8
:1012D0001A60054807F0F6F90346002B01D000F02C
:1012E000E9F900BF80BD00BFC40D002000300240FE
:1012F00080B485B000AF78607B681B680B4A93426E
:101300000DD10023FB600A4B1B6B094A43F4805349
:101310001363074B1B6B03F48053FB60FB6800BF38
:101320001437BD465DF8047B704700BF00300240B3
:101330000038024080B582B000AF00237B60144BC0
:101340001B6B134A43F480031363114B1B6B03F4B1
:1013500080037B607B6800220021382007F088F939
:10136000382007F0A1F900220021392007F080F988
:10137000392007F099F9002200213A2007F078F986
:101380003A2007F091F900BF0837BD4680BD00BF85
:101390000038024080B58AB000AF07F11403002284
:1013A0001A605A609A60DA601A6100233B61654BEB
:1013B0001B6B644A43F004031363624B1B6B03F023
:1013C00004033B613B690023FB605E4B1B6B5D4A82
:1013D00043F0800313635B4B1B6B03F08003FB60E4
:1013E000FB680023BB60574B1B6B564A43F001035D
:1013F0001363544B1B6B03F00103BB60BB680023FA
:101400007B60504B1B6B4F4A43F0020313634D4B01
:101410001B6B03F002037B607B6800233B60494B3E
:101420001B6B484A43F008031363464B1B6B03F0E6
:1014300008033B603B6800224FF4C041424808F07B
:10144000D5F800220321414808F0D0F800224FF4DB
:1014500080513F4808F0CAF8002204213D4808F0B6
:10146000C5F84FF4C0437B610123BB610023FB61DE
:1014700000233B6207F114031946334807F002FFCB
:1014800048F210237B610323BB610023FB6107F15A
:10149000140319462C4807F0F5FE03237B61012352
:1014A000BB610023FB6100233B6207F11403194673
:1014B000264807F0E7FE04237B610023BB6100237D
:1014C000FB6107F114031946204807F0DBFE48F2E0
:1014D00008037B610323BB610023FB6107F1140355
:1014E00019461A4807F0CEFE0C237B610323BB612B
:1014F0000023FB6107F114031946154807F0C2FEEB
:101500004FF480537B610123BB610023FB61002307
:101510003B6207F1140319460D4807F0B3FE04239C
:101520007B610123BB610023FB6103233B6207F165
:1015300014031946074807F0A5FE00BF2837BD462B
:1015400080BD00BF00380240000802400000024099
:1015500000040240000C024080B500AF05F0D6FD4B
:1015600000F02AF8FFF716FFFFF7E4FE00F028FB73
:1015700005F0D8F900F012FD00F046FD00F0A2F8E9
:10158000FFF72EFBFFF7BCFBFFF724FC00F05EFC2F
:10159000FFF71EFE00F0F2FB00F0ACFC00F06AFD6D
:1015A000FFF792FE01F096FB05F0E6FD03461846B4
:1015B00001F040FCF8E7000080B594B000AF07F1FF
:1015C00020033022002118460EF0E2F807F10C0348
:1015D00000221A605A609A60DA601A610023BB60C8
:1015E000284B1B6C274A43F080531364254B1B6C1C
:1015F00003F08053BB60BB6800237B60224B1B68F9
:10160000214A43F4804313601F4B1B6803F480435B
:101610007B607B6801233B624FF480337B62022353
:10162000BB634FF48003FB6304233B64A8237B6408
:101630000223BB640723FB6407F12003184609F06B
:1016400059F90346002B01D000F034F80F23FB605A
:1016500002233B6100237B614FF4A053BB614FF435
:101660008053FB6107F10C030521184609F0B0FB1C
:101670000346002B01D000F01DF800BF5037BD46D7
:1016800080BD00BF003802400070004080B582B0CD
:1016900000AF7860786801F0FBFB7B681B68044A48
:1016A000934201D105F054FD00BF0837BD4680BD0F
:1016B0000020004080B400AF00BFBD465DF8047B51
:1016C0007047000080B500AF184B194A1A60174BDD
:1016D0004FF482725A60154B00229A60134B4FF4FC
:1016E0000062DA60114B00221A61104B01225A612C
:1016F0000E4B4FF400729A610C4B2022DA610B4BB7
:1017000000221A62094B00225A62084B00229A6298
:10171000064B0A22DA62054809F098FD0346002BC1
:1017200001D0FFF7C7FF00BF80BD00BFCC0D002078
:10173000003C004080B58AB000AF786007F1140328
:1017400000221A605A609A60DA601A617B681B682E
:101750001D4A934234D100233B611C4B1B6C1B4A36
:1017600043F400431364194B1B6C03F400433B61C7
:101770003B690023FB60154B1B6B144A43F00403C9
:101780001363124B1B6B03F00403FB60FB684FF405
:10179000E0537B610223BB610023FB6103233B62B7
:1017A00006237B6207F114031946094807F06AFD16
:1017B00000220021332006F05BFF332006F074FF87
:1017C00000BF2837BD4680BD003C004000380240C5
:1017D0000008024080B483B000AF00237B60104B50
:1017E0005B6C0F4A43F4804353640D4B5B6C03F412
:1017F00080437B607B6800233B60094B1B6C084A7D
:1018000043F080531364064B1B6C03F080533B6022
:101810003B6800BF0C37BD465DF8047B704700BFD6
:101820000038024080B58CB000AF78600023FB62C6
:101830000023BB62002279682D2006F019FF2D20BD
:1018400006F032FF0023FB601F4B1B6C1E4A43F463
:10185000807313641C4B1B6C03F48073FB60FB6888
:1018600007F1100207F114031146184609F0BCFCF9
:1018700009F0A6FC03465B00FB62FB6A134AA2FB6D
:1018800003239B0C013BBB62114B124A1A60104BA5
:1018900040F2E732DA600E4ABB6A53600C4B00221A
:1018A0001A610B4B00229A6009480AF0D3F90346EB
:1018B000002B04D106480AF0F8F9034600E00123A2
:1018C00018463037BD4680BD0038024083DE1B43DA
:1018D000240E00200020004080B400AF00BFBD46B1
:1018E0005DF8047B704780B400AFFEE780B400AFC2
:1018F000FEE780B400AFFEE780B400AFFEE780B43F
:1019000000AF00BFBD465DF8047B704780B400AFF8
:1019100000BFBD465DF8047B704780B400AF00BFD8
:10192000BD465DF8047B704780B400AF00BFBD4684
:101930005DF8047B7047000080B500AF054805F0F6
:101940008EFC054805F08BFC044805F088FC00BFC0
:1019500080BD00BF4C0C0020A40B0020940C002084
:1019600080B500AF03480AF0F7FA03480AF0F4FA2A
:1019700000BF80BD640E0020240E002080B500AFA3
:10198000024809F09DFF00BF80BD00BFCC0D0020C4
:1019900080B500AF02480AF0DFFA00BF80BD00BF8B
:1019A000240F002080B500AF02480AF0D5FA00BF2E
:1019B00080BD00BFE40F002080B500AF024806F0F4
:1019C000F9FF00BF80BD00BFDC0C002080B500AF78
:1019D000024806F0EFFF00BF80BD00BFEC0B002007
:1019E00080B500AF024806F0E5FF00BF80BD00BF34
:1019F0003C0D002080B500AF024807F060FF00BF3B
:101A000080BD00BF4C12002080B400AF01231846F7
:101A1000BD465DF8047B704780B582B000AF78604A
:101A200039600DF05BFE034616221A604FF0FF335B
:101A300018460837BD4680BD80B582B000AF7860DB
:101A40004FF0FF317868FFF7E7FFFEE780B586B01B
:101A500000AFF860B9607A6000237B610AE0AFF301
:101A600000800146BB685A1CBA60CAB21A707B6912
:101A700001337B617A697B689A42F0DB7B681846A8
:101A80001837BD4680BD80B586B000AFF860B9603C
:101A90007A6000237B6109E0BB685A1CBA601B783E
:101AA0001846AFF300807B6901337B617A697B68FC
:101AB0009A42F1DB7B6818461837BD4680BD80B47A
:101AC00083B000AF78604FF0FF3318460C37BD4647
:101AD0005DF8047B704780B483B000AF78603960F4
:101AE0003B684FF400525A60002318460C37BD463D
:101AF0005DF8047B704780B483B000AF7860012349
:101B000018460C37BD465DF8047B704780B485B03D
:101B100000AFF860B9607A60002318461437BD46FC
:101B20005DF8047B7047000080B586B000AF786038
:101B3000144A154BD31A7B617B693B61134B1B68BD
:101B4000002B02D1114B124A1A60104B1A687B68A5
:101B500013443A699A4207D20DF0C0FD03460C22A5
:101B60001A604FF0FF3309E0084B1B68FB60074B1E
:101B70001A687B681344054A1360FB6818461837D7
:101B8000BD4680BD0000022000040000040B0020C0
:101B9000501B002080B400AF084BD3F88830074AB0
:101BA00043F47003C2F88830044B4FF000629A602F
:101BB00000BFBD465DF8047B704700BF00ED00E04C
:101BC00080B59AB000AF07F1580300221A605A603E
:101BD0009A60DA6007F1440300221A605A609A6042
:101BE000DA601A6107F13C0300221A605A6007F1BB
:101BF000200300221A605A609A60DA601A615A6102
:101C00009A613B462022002118460DF0C1FD594B38
:101C1000594A1A60574B00225A60564B60229A600C
:101C2000544B41F26702DA60524B00221A61514B69
:101C300000225A614F4B80229A614E480AF00AF8FE
:101C40000346002B01D0FFF735FD4FF48053BB65F1
:101C500007F15803194647480AF04CFB0346002B8E
:101C600001D0FFF727FD43480AF043F80346002B55
:101C700001D0FFF71FFD00237B641023BB6407F135
:101C8000440319463B480AF0F9FB0346002B01D0F8
:101C9000FFF710FD7023FB6380233B6407F13C03D7
:101CA000194634480AF0F2FF0346002B01D0FFF733
:101CB00001FD70233B6200237B620023BB62002393
:101CC000FB6200233B6300237B630023BB6307F1BC
:101CD00020030022194627480AF046FA0346002B43
:101CE00001D0FFF7E7FC07F1200304221946214841
:101CF0000AF03AFA0346002B01D0FFF7DBFC07F1AC
:101D00002003082219461B480AF02EFA0346002B2E
:101D100001D0FFF7CFFC07F120030C22194615482C
:101D20000AF022FA0346002B01D0FFF7C3FC4FF460
:101D300000633B604FF480637B600023BB60002343
:101D4000FB6000233B614FF400537B610023FB6188
:101D50003B46194607480BF015F80346002B01D007
:101D6000FFF7A8FC034800F079FB00BF6837BD46C9
:101D700080BD00BF640F00200000014080B58AB024
:101D800000AF07F1200300221A605A603B1D0022B9
:101D90001A605A609A60DA601A615A619A612A4B35
:101DA0004FF080421A60284B00225A60264B602276
:101DB0009A60254B40F63302DA60234B00221A6109
:101DC000214B00229A61204809F093FF0346002B23
:101DD00001D0FFF76FFC00233B6280237B6207F199
:101DE0002003194618480AF051FF0346002B01D082
:101DF000FFF760FC60237B6040F63303BB60022387
:101E0000FB6000237B613B1D082219460E480AF047
:101E1000ABF90346002B01D0FFF74CFC0023BB605D
:101E20000023FB603B1D0C22194607480AF09CF971
:101E30000346002B01D0FFF73DFC034800F00EFBEA
:101E400000BF2837BD4680BDA40F002080B58CB0F0
:101E500000AF07F10C032422002118460DF098FC76
:101E60003B1D00221A605A60204B214A1A601F4B0A
:101E700000225A601D4B00229A601C4B4FF6FF72E5
:101E8000DA601A4B00221A61184B00229A61032370
:101E9000FB6000233B6101237B610023BB610423C2
:101EA000FB6100233B6201237B620023BB620423AE
:101EB000FB6207F10C0319460C4809F083FF034647
:101EC000002B01D0FFF7F6FB00237B600023BB60F3
:101ED0003B1D194605480AF0D9FE0346002B01D0E8
:101EE000FFF7E8FB00BF3037BD4680BDE40E0020A1
:101EF0000004004080B58CB000AF07F10C03242231
:101F0000002118460DF044FC3B1D00221A605A6067
:101F1000204B214A1A601F4B00225A601D4B0022A1
:101F20009A601C4B4FF6FF72DA601A4B00221A615E
:101F3000184B00229A610323FB6000233B610123BD
:101F40007B610023BB610423FB6100233B6201230F
:101F50007B620023BB620423FB6207F10C0319467A
:101F60000C4809F02FFF0346002B01D0FFF7A2FB1E
:101F700000237B600023BB603B1D194605480AF027
:101F800085FE0346002B01D0FFF794FB00BF3037DE
:101F9000BD4680BDA40E00200008004080B582B080
:101FA00000AF3B4600221A605A60154B154A1A6072
:101FB000134B02225A60124B00229A60104B41F2DE
:101FC0006702DA600E4B00229A610D4809F042FE6A
:101FD0000346002B01D0FFF76DFB20233B6000235D
:101FE0007B603B46194606480AF050FE0346002B2C
:101FF00001D0FFF75FFB00BF0837BD4680BD00BFC3
:10200000240F00200010004080B582B000AF3B4696
:1020100000221A605A60154B154A1A60134B63224E
:102020005A60124B00229A60104B41F26702DA604C
:102030000E4B00229A610D4809F00CFE0346002B5E
:1020400001D0FFF737FB20233B6000237B603B463A
:10205000194606480AF01AFE0346002B01D0FFF786
:1020600029FB00BF0837BD4680BD00BFE40F00203C
:102070000014004080B59AB000AF07F15803002269
:102080001A605A609A60DA6007F1440300221A600D
:102090005A609A60DA601A6107F13C0300221A6004
:1020A0005A6007F1200300221A605A609A60DA60D1
:1020B0001A615A619A613B462022002118460DF0B0
:1020C00067FB594B594A1A60574B00225A60564BCE
:1020D00060229A60544B41F26702DA60524B002250
:1020E0001A61514B00225A614F4B00229A614E48AF
:1020F00009F0B0FD0346002B01D0FFF7DBFA4FF4E7
:102100008053BB6507F15803194647480AF0F2F8B7
:102110000346002B01D0FFF7CDFA434809F0E9FD53
:102120000346002B01D0FFF7C5FA00237B64002390
:10213000BB6407F1440319463B480AF09FF9034684
:10214000002B01D0FFF7B6FA7023FB6380233B64BA
:1021500007F13C03194634480AF098FD0346002B6A
:1021600001D0FFF7A7FA70233B6200237B620023B4
:10217000BB620023FB6200233B6300237B630023DD
:10218000BB6307F1200300221946274809F0ECFF42
:102190000346002B01D0FFF78DFA07F1200304223C
:1021A0001946214809F0E0FF0346002B01D0FFF754
:1021B00081FA07F12003082219461B4809F0D4FFD1
:1021C0000346002B01D0FFF775FA07F120030C221C
:1021D0001946154809F0C8FF0346002B01D0FFF748
:1021E00069FA4FF400633B604FF480637B60002327
:1021F000BB600023FB6000233B614FF400537B6115
:102200000023FB613B46194607480AF0BBFD034625
:10221000002B01D0FFF74EFA034800F01FF900BF72
:102220006837BD4680BD00BF640E00200004014039
:1022300080B586B000AF78607B681B68344A9342F3
:102240000ED100237B61334B5B6C324A43F00103B8
:102250005364304B5B6C03F001037B617B6952E09C
:102260007B681B682C4A934216D100233B61294BA3
:102270001B6C284A43F010031364264B1B6C03F0BD
:1022800010033B613B6900220021362006F0F0F983
:10229000362006F009FA36E07B681B681F4A934235
:1022A00016D10023FB601B4B1B6C1A4A43F0200322
:1022B0001364184B1B6C03F02003FB60FB680022C7
:1022C0000021372006F0D4F9372006F0EDF91AE0A6
:1022D0007B681B68124A934215D10023BB600D4BEB
:1022E0005B6C0C4A43F0020353640A4B5B6C03F0D3
:1022F0000203BB60BB68002200212D2006F0B8F964
:102300002D2006F0D1F900BF1837BD4680BD00BFB3
:10231000000001400038024000100040001400405E
:102320000004014080B485B000AF78607B681B6812
:10233000B3F1804F0DD10023FB60094B1B6C084AA1
:1023400043F001031364064B1B6C03F00103FB60B5
:10235000FB6800BF1437BD465DF8047B704700BFC3
:102360000038024080B58CB000AF786007F11C03E4
:1023700000221A605A609A60DA601A617B681B68F2
:10238000324A93422CD10023BB61314B1B6C304A43
:1023900043F0020313642E4B1B6C03F00203BB617A
:1023A000BB6900237B612A4B1B6B294A43F0020364
:1023B0001363274B1B6B03F002037B617B693023A4
:1023C000FB6102233B6200237B620023BB6202238A
:1023D000FB6207F11C0319461E4806F053FF30E06C
:1023E0007B681B681C4A93422BD100233B61184B2E
:1023F0001B6C174A43F004031364154B1B6C03F06A
:1024000004033B613B690023FB60114B1B6B104ACB
:1024100043F0020313630E4B1B6B03F00203FB60DC
:10242000FB68C023FB6102233B6200237B62002325
:10243000BB620223FB6207F11C031946054806F044
:1024400021FF00BF3037BD4680BD00BF0004004003
:1024500000380240000402400008004080B58EB001
:1024600000AF786007F1240300221A605A609A6076
:10247000DA601A617B681B68654A93423ED100238B
:102480003B62644B1B6B634A43F002031363614B73
:102490001B6B03F002033B623B6A0023FB615D4B55
:1024A0001B6B5C4A43F0010313635A4B1B6B03F035
:1024B0000103FB61FB694FF460437B620223BB6253
:1024C0000023FB6200233B6301237B6307F12403AA
:1024D0001946514806F0D6FE4FF4E0637B620223B2
:1024E000BB620023FB6200233B6301237B6307F194
:1024F00024031946494806F0C5FE84E07B681B6842
:10250000B3F1804F1FD10023BB61424B1B6B414A8B
:1025100043F0020313633F4B1B6B03F00203BB61E9
:10252000BB694FF440637B620223BB620023FB6202
:1025300000233B6301237B6307F1240319463648DC
:1025400006F0A0FE5FE07B681B68354A93425AD1D3
:1025500000237B612F4B1B6B2E4A43F00103136357
:102560002C4B1B6B03F001037B617B6900233B61F8
:10257000284B1B6B274A43F002031363254B1B6B4D
:1025800003F002033B613B690023FB60214B1B6BA3
:10259000204A43F0040313631E4B1B6B03F0040338
:1025A000FB60FB6880237B620223BB620023FB622B
:1025B00000233B6303237B6307F124031946174879
:1025C00006F060FE03237B620223BB620023FB62F2
:1025D00000233B6303237B6307F1240319460E4862
:1025E00006F050FE4FF4E0737B620223BB620023CF
:1025F000FB6200233B6303237B6307F1240319463B
:10260000084806F03FFE00BF3837BD4680BD00BF1A
:102610000000014000380240000402400000024077
:102620000004014000080240DFF838D0002103E038
:102630000D4B5B58435004310C480D4B42189A42E5
:10264000F6D30C4A02E0002342F8043B0A4B9A42BC
:10265000F9D3FFF79FFA00F00FFB0DF057F8FEF7E4
:102660007BFF7047000002204009010800000020A5
:10267000E80A0020E80A0020481B0020FEE70000CE
:1026800080B58AB000AFF86087ED020AC7ED010A95
:102690004FF000037B614FF000033B614FF00003FC
:1026A0007B624FF000033B624FF00003FB61D7ED0C
:1026B000017AF5EEC07AF1EE10FA2ADBD7ED027A54
:1026C000F5EEC07AF1EE10FA11DBD7ED017A9FED4D
:1026D000E47A67EE877A97ED027AB4EEE77AF1EE64
:1026E00010FA01D5022300E00123BB613BE0D7EDE6
:1026F000017A9FEDDC7A67EE877A97ED027AB4EE85
:10270000E77AF1EE10FA01D5032300E00223BB6162
:1027100029E0D7ED027AF5EEC07AF1EE10FA11DB7E
:10272000D7ED017A9FEDCF7A67EE877A97ED027A3F
:10273000B4EEE77AF1EE10FA01D5052300E00623A6
:10274000BB6110E0D7ED017A9FEDC57A67EE877A1D
:1027500097ED027AB4EEE77AF1EE10FA01D5042390
:1027600000E00523BB61D7ED027A9FEDBF7A67EEEB
:10277000877AC7ED027AD7ED017A9FEDBB7A67EED3
:10278000877AC7ED017ABB69013B052B00F25A81BC
:1027900001A252F823F000BFB12700081B2800084F
:1027A0008D280008FB28000865290008DB2900089F
:1027B000D7ED017A9FEDAA7A67EE877A97ED027AD4
:1027C00077EE677AC7ED057AD7ED017A9FEDA77AA4
:1027D00067EE877AC7ED047AB7EE007AD7ED057A0F
:1027E00037EE677AD7ED047A77EE677AB6EE007A3D
:1027F00067EE877AC7ED097A97ED097AD7ED057A02
:1028000077EE277AC7ED087A97ED087AD7ED047A44
:1028100077EE277AC7ED077A14E1D7ED017A9FEDBD
:10282000907A67EE877A97ED027A77EE277AC7ED8E
:10283000057AD7ED017A9FED8A7A27EE877AD7ED70
:10284000027A77EE677AC7ED047AB7EE007AD7EDB1
:10285000057A37EE677AD7ED047A77EE677AB6EEC7
:10286000007A67EE877AC7ED087A97ED087AD7ED98
:10287000047A77EE277AC7ED097A97ED097AD7EDD2
:10288000057A77EE277AC7ED077ADBE0D7ED017A94
:102890009FED767A67EE877AC7ED057AD7ED027AF3
:1028A000B1EE677AD7ED017ADFED6D6A67EEA67A51
:1028B00077EE677AC7ED047AB7EE007AD7ED057A3E
:1028C00037EE677AD7ED047A77EE677AB6EE007A5C
:1028D00067EE877AC7ED087A97ED087AD7ED057A23
:1028E00077EE277AC7ED077A97ED077AD7ED047A66
:1028F00077EE277AC7ED097AA4E0D7ED017A9FED4C
:10290000587A27EE877AD7ED027A77EE677AC7EDA5
:10291000057AD7ED017A9FED567A67EE877AC7ED93
:10292000047AB7EE007AD7ED057A37EE677AD7EDFD
:10293000047A77EE677AB6EE007A67EE877AC7EDAB
:10294000077A97ED077AD7ED047A77EE277AC7ED05
:10295000087A97ED087AD7ED057A77EE277AC7EDF2
:10296000097A6FE0D7ED027AB1EE677AD7ED017A96
:10297000DFED3B6A67EEA67A77EE677AC7ED057AF8
:10298000D7ED017A9FED367A67EE877A97ED027A76
:1029900077EE677AC7ED047AB7EE007AD7ED057A5D
:1029A00037EE677AD7ED047A77EE677AB6EE007A7B
:1029B00067EE877AC7ED077A97ED077AD7ED057A44
:1029C00077EE277AC7ED097A97ED097AD7ED047A81
:1029D00077EE277AC7ED087A34E0D7ED017A9FEDDC
:1029E000247A67EE877AC7ED057AD7ED017A9FEDF5
:1029F0001C7A67EE877A97ED027A77EE277AC7ED31
:102A0000047AB7EE007AD7ED057A37EE677AD7ED1C
:102A1000047A77EE677AB6EE007A67EE877AC7EDCA
:102A2000097A97ED097AD7ED047A77EE277AC7ED20
:102A3000077A97ED077AD7ED057A77EE277AC7ED13
:102A4000087A00BF97ED071AD7ED080A97ED090A33
:102A5000F86800F03AF800BF2837BD4680BD00BFD7
:102A6000EFC9133FEFC913BF2DB25D3FEFC9933FCD
:102A7000EFC993BF80B586B000AFF86087ED020A5A
:102A8000C7ED010A97ED020A02F080FBB0EE407A32
:102A9000D7ED017A67EE877AC7ED057A97ED020ADE
:102AA00002F024FBB0EE407AD7ED017A67EE877A28
:102AB000C7ED047AD7ED040A97ED050AF868FFF729
:102AC000DFFD00BF1837BD4680BD80B48DB000AFBC
:102AD000F86087ED020AC7ED010A87ED001AFB686E
:102AE000DB68FB62FB6A07EE903AB8EE677AD7EDD7
:102AF000027A67EE277AFCEEE77A17EE903ABB622D
:102B0000FB6A07EE903AB8EE677AD7ED017A67EE86
:102B1000277AFCEEE77A17EE903A7B62FB6A07EEC3
:102B2000903AB8EE677AD7ED007A67EE277AFCEE36
:102B3000E77A17EE903A3B62EFF310837B617B6993
:102B4000FB6172B600BFFB681B68BA6A5A63FB6818
:102B50001B687A6A9A63FB681B683A6ADA63FB69E6
:102B6000BB61BB6983F3108800BF00BF3437BD462B
:102B70005DF8047B7047000080B582B000AF002391
:102B80007B6049E07A681346DB009B1A9B00264A6B
:102B90009818264B19687A681346DB009B1A9B002D
:102BA00028330B440633194601F040FE87ED000A36
:102BB000D7ED007AB7EE007AF4EEC77AF1EE10FAAC
:102BC00002DDF7EE007A0DE0D7ED007ABFEE007A75
:102BD000F4EEC77AF1EE10FA02D5FFEE007A01E0CA
:102BE000D7ED007A114B19687A681346DB009B1AFF
:102BF0009B000B442E3393F9003007EE103AB8EEE9
:102C0000C77A67EE877A0A4A7B689B001344C3ED54
:102C1000007A7B6801337B607B68002BB2DD00BFEC
:102C200000BF0837BD4680BDB40100203802002037
:102C3000080B002080B400AFBFF34F8F00BF064BDE
:102C4000DB6803F4E0620449044B1343CB60BFF339
:102C50004F8F00BF00BFFDE700ED00E00400FA0564
:102C600080B500AF024B034A1A60FFF7E3FF00BFD5
:102C7000481B0020EFBEADDE80B582B000AF104B28
:102C80001B68104A93420DD10D4B0F4A1A600F4B2F
:102C90003B603B6883F3088800BF0D4B1B687B607B
:102CA0007B689847064B1B682A2B04D0044B2A22CA
:102CB0001A60FFF7BFFF00BF0837BD4680BD00BFE9
:102CC000481B0020EFBEADDEEDFEFECA0000022074
:102CD0000400FF1F80B500AF02F0C0FD00F0BEFC95
:102CE00002F09EF902F0E8FB00F0F6F802F054FB67
:102CF00001F060FD04F040FA0346024A136000BF91
:102D000080BD00BF2410002080B500AF1C4BD3ED68
:102D1000007A9FED1C7A27EE877AF0EE006AC7EE04
:102D2000267A9FED197A77EE877AFCEEE77A17EE2E
:102D3000903A9AB2154BA3F80920154BD3ED007ABF
:102D40009FED107A27EE877AF0EE006AC7EE267ABA
:102D50009FED0D7A77EE877AFCEEE77A17EE903AE0
:102D60009AB20A4BA3F8152002F0B6FF094B1B6874
:102D700019220649184603F05BFC00BF80BD00BF66
:102D8000080B002000FEFF4600FC7F4618020020D2
:102D9000100B00202005002080B500AF0B4B1B78E6
:102DA000DBB2002B04D10A4B1B78DBB2002B01D025
:102DB000012300E0002303F00103DAB2054B1A708F
:102DC00002F0B0FA02F068F800BF80BD760B002078
:102DD000750B00200C0B002080B582B000AF78602E
:102DE000FFF7CAFE786801F091F900BF0837BD46C9
:102DF00080BD000080B500AF02F0C0FDFFF784FF8A
:102E00000A4B1B78DBB2002B04D002F02FFD074BDE
:102E100000221A70064B1B78DBB2002B04D002F0A4
:102E200035FD034B00221A7000BF80BD750B0020DA
:102E3000760B002080B582B000AF7860114B1B7814
:102E4000DBB2002B04D00F4B00221A70FFF7A4FF57
:102E50000D4B1B687A689A4205D90B4A7B68136050
:102E60007868FFF7B9FF094B1B78DBB2002B04D061
:102E7000064B00221A70FFF7BDFF00BF0837BD46A2
:102E800080BD00BF0D0B0020241000200E0B002081
:102E900080B483B000AF78607B681A680A4B1B6807
:102EA0009A4202D1094B01221A707B681A68084BBA
:102EB0001B689A4202D1074B01221A7000BF0C37DF
:102EC000BD465DF8047B7047240F00200D0B0020E9
:102ED000E40F00200E0B002080B500AF264B1B68CE
:102EE00040F633025A63244B1B6840F633029A6360
:102EF000214B1B6840F63302DA63204B1B6840F617
:102F000033025A631D4B1B6840F633029A631B4B16
:102F10001B6840F63302DA63174B1B6832221A64CF
:102F2000164B1B6832221A640021134808F00CFF6C
:102F30000421114808F008FF08210F4808F004FF99
:102F40000C210D4808F000FF0D4808F0AEFE0D48BA
:102F500008F0ABFE3C210C4808F0C6FF3C210B48B2
:102F600008F0C2FF08210A4808F0EEFE0C210848CC
:102F700008F0EAFE00BF80BD640F0020640E002050
:102F8000240F0020E40F0020E40E0020A40E0020F7
:102F9000A40F002080B485B000AF0346FB800B4631
:102FA000BB8013467B80FA88BB8813439BB21AB25E
:102FB000B7F90230C3F30A031BB213431BB2FB8100
:102FC000FB8918461437BD465DF8047B704780B511
:102FD00082B000AF78607B6858687B681B890122EB
:102FE000194606F003FB0A2004F0D2F800BF0021C6
:102FF000786800F00DF8034603F48063002BF6D1E7
:10300000012004F0C5F800BF0837BD4680BD0000B0
:1030100080B586B002AF78600B467B807B68D8684D
:103020007B681B8A0022194606F0E0FA012000F0B6
:1030300035FB0023FB817B88002219464FF40040BA
:10304000FFF7A8FF0346BB814BF6EF637B817B68EC
:10305000186807F10C014FF47A73012208F05AF94D
:103060007B68D8687B681B8A0122194606F0BEFA85
:10307000012000F013FB7B68D8687B681B8A002264
:10308000194606F0B3FA012000F008FB7B681868C7
:1030900007F10A0207F10E014FF47A73009301233E
:1030A00008F06CFA012000F0F9FA7B68D8687B68B8
:1030B0001B8A0122194606F099FA012000F0EEFA67
:1030C0007B894BF6EF62934206D1074B074A40F2E9
:1030D000691107480CF0E4FA7B89C3F30A039BB239
:1030E00018461037BD4680BD3C070108B0070108EF
:1030F0005007010880B584B000AF78600B467B8034
:103100004FF480517868FFF783FF0346FB81FB890A
:1031100023F4F863FB81FA897B881343FB81FB89E5
:103120001A464FF48051786800F067F800BF1037F6
:10313000BD4680BD80B584B000AF78600B46FB70A3
:103140004FF480517868FFF763FF0346FB81FB89EA
:1031500023F03003FB81FB789AB2FB891343FB8198
:10316000FB891A464FF48051786800F046F800BF9A
:103170001037BD4680BD80B584B000AF78600B4687
:10318000FB704FF480517868FFF742FF0346FB81E4
:10319000FB8923F00803FB81FB789AB2FB89134378
:1031A000FB81FB891A464FF48051786800F025F8BE
:1031B00000BF1037BD4680BD80B584B000AF7860D9
:1031C0000B46FB704FF4C0517868FFF721FF0346B0
:1031D000FB81FB8923F00C03FB81FB789AB2FB890E
:1031E0001343FB81FB891A464FF4C051786800F005
:1031F00004F800BF1037BD4680BD80B584B000AF75
:1032000078600B467B8013463B807B68D8687B6880
:103210001B8A0022194606F0E9F9012000F03EFA67
:103220003A887B8819460020FFF7B4FE0346FB81ED
:103230007B68186807F10E014FF47A73012208F0D9
:1032400069F8012000F02AFA7B68D8687B681B8A3D
:103250000122194606F0CAF9012000F01FFA00BF4A
:103260001037BD4680BD80B584B000AF786039604E
:103270003B6893F82330002B00F0F4800023FB819F
:10328000FB8919467868FFF7C3FE0346BB81BB89FB
:1032900003F48063002B14BF01230023DAB23B68E0
:1032A0001A70BB8903F40073002B14BF01230023A1
:1032B000DAB23B685A70BB8903F48073002B14BFE9
:1032C00001230023DAB23B689A70BB8903F08003C4
:1032D000002B14BF01230023DAB23B68DA70BB89EC
:1032E00003F04003002B14BF01230023DAB23B6834
:1032F0001A71BB8903F02003002B14BF01230023A4
:10330000DAB23B685A71BB8903F01003002B14BF7B
:1033100001230023DAB23B689A71BB8903F00803EA
:10332000002B14BF01230023DAB23B68DA71BB899A
:1033300003F00403002B14BF01230023DAB23B681F
:103340001A72BB8903F00203002B14BF0123002370
:10335000DAB23B685A72BB8903F00103002B14BF39
:1033600001230023DAB23B689A723B68BA895A8318
:103370004FF40063FB81FB8919467868FFF748FE2C
:103380000346BB81BB8903F08003002B14BF0123DC
:103390000023DAB23B681A73BB8903F00F039AB2B9
:1033A0003B68DA813B68BA899A834FF48053FB818A
:1033B000FB8919467868FFF72BFE0346BB81BB8962
:1033C000DBB203F00303DAB23B681A74BB89DBB2E9
:1033D00003F00403DAB23B685A74BB89DBB203F032
:1033E0000803DAB23B689A74BB89DBB203F030039E
:1033F000DAB23B68DA74BB8903F4F8639AB23B68CB
:103400009A823B68BA89DA834FF4C053FB81FB8907
:1034100019467868FFF7FCFD0346BB81BB89DBB228
:1034200003F00303DAB23B689A75BB89DBB203F0A1
:103430000C03DAB23B68DA75BB89DBB203F0300308
:10344000DAB23B681A76BB89DBB203F04003DAB22A
:103450003B685A763B68BA891A843B68002283F835
:10346000232000BF00BF1037BD4680BD80B584B0AB
:1034700000AF786039603B68002283F822203B6807
:10348000002283F82320012003F082FE0023FB8129
:10349000FB8919467868FFF7BBFD0346BB81BB89F2
:1034A00003F48063002B14BF01230023DAB23B68CE
:1034B0001A70BB8903F40073002B14BF012300238F
:1034C000DAB23B685A70BB8903F48073002B14BFD7
:1034D00001230023DAB23B689A70BB8903F08003B2
:1034E000002B14BF01230023DAB23B68DA70BB89DA
:1034F00003F04003002B14BF01230023DAB23B6822
:103500001A71BB8903F02003002B14BF0123002391
:10351000DAB23B685A71BB8903F01003002B14BF69
:1035200001230023DAB23B689A71BB8903F00803D8
:10353000002B14BF01230023DAB23B68DA71BB8988
:1035400003F00403002B14BF01230023DAB23B680D
:103550001A72BB8903F00203002B14BF012300235E
:10356000DAB23B685A72BB8903F00103002B14BF27
:1035700001230023DAB23B689A724FF40063FB81A7
:10358000FB8919467868FFF743FD0346BB81BB8979
:1035900003F08003002B14BF01230023DAB23B6841
:1035A0001A73BB8903F00F039AB23B68DA814FF4B8
:1035B0008053FB81FB8919467868FFF729FD034694
:1035C000BB81BB89DBB203F00303DAB23B681A7438
:1035D000BB89DBB203F00403DAB23B685A74BB89DF
:1035E000DBB203F00803DAB23B689A74BB89DBB242
:1035F00003F03003DAB23B68DA74BB8903F4F86392
:103600009AB23B689A824FF4C053FB81FB891946FA
:103610007868FFF7FDFC0346BB81BB89DBB203F092
:103620000303DAB23B689A75BB89DBB203F00C0383
:10363000DAB23B68DA75BB89DBB203F03003DAB289
:103640003B681A76BB89DBB203F04003DAB23B6811
:103650005A7600BF1037BD4680BD000080B400AF71
:103660000C4BDB6803F08073002B0ED1094BDB6839
:10367000084A43F08073D360074B00225A60064B20
:103680001B68054A43F00103136000BFBD465DF8A7
:10369000047B7047F0ED00E0001000E080B485B0DE
:1036A00000AF78600D4B5B68FB600D4B1B680D4AEB
:1036B000A2FB03239A0C7B6802FB03F3BB6000BFF1
:1036C000064B5A68FB68D31ABA689A42F8D800BF0A
:1036D00000BF1437BD465DF8047B7047001000E062
:1036E0000000002083DE1B4380B582B000AF87ED71
:1036F000010AC7ED000AD7ED017A9FED097A67EE5E
:10370000877AB0EE670A01F0F1FCB0EE407AD7EDAF
:10371000007A67EE277AB0EE670A0837BD4680BDAB
:103720000000B44380B483B000AF87ED010AC7ED59
:10373000000AD7ED017AB6EE007AF4EEC77AF1EE20
:1037400010FA02D8B7EE007A01E0BFEE007AD7EDAA
:10375000007A67EE277AB0EE670A0C37BD465DF84F
:10376000047B704780B483B000AF87ED010AC7EDDA
:10377000000AD7ED017AB6EE007AF4EEC77AF1EEE0
:1037800010FA02D8D7ED017A05E0B7EE007AD7ED4E
:10379000017A77EE677AB1EE007A67EE877AB7EE54
:1037A000007A37EEC77AD7ED007A67EE277AB0EE67
:1037B000670A0C37BD465DF8047B704780B483B060
:1037C00000AF87ED010AC7ED000AD7ED017A77EE69
:1037D000A77AB7EE007A37EEC77AD7ED007A67EEB0
:1037E000277AB0EE670A0C37BD465DF8047B704758
:1037F00080B483B000AF87ED010AC7ED000AD7EDB2
:10380000017A77EEA77AB7EE007A37EE677AD7EDCE
:10381000007A67EE277AB0EE670A0C37BD465DF88E
:10382000047B704780B483B000AF786039603B6838
:103830005B78DBB2022B1AD13B685B889BB21A46DD
:103840003B689B889BB202FB03F31A467B6893425A
:103850000BD33B685B889BB247F6FE72934204D859
:103860003B685B889BB2002B01D1012300E0002361
:10387000DBB218460C37BD465DF8047B704780B557
:1038800088B000AFF860B9607A60BB685B6AFA68BC
:103890009A427FD9BB689B68FA68D31ABA68114606
:1038A0001846FFF7BFFF0346002B5BD0BB681B8C9D
:1038B0009BB2002B56D0BB685B6AFA68D31ABA6811
:1038C000128C92B20132B3FBF2F101FB02F29B1AAD
:1038D00007EE903AF8EE676ABB681B8C9BB207EE66
:1038E000903AB8EE677AC6EE877AC7ED067ABB687B
:1038F000D3ED077A97ED067A77EE277AC7ED057A4A
:10390000D7ED057AB7EE007AF4EEC77AF1EE10FA49
:103910000ADDD7ED057AFDEEE77AF8EEE77A97ED66
:10392000057A77EE677A01E0D7ED057ABB68C3EDDB
:10393000077ABB68D3ED077ABB6893ED057A7B689D
:10394000F0EE470AB0EE670A9847B0EE407ABB68DF
:10395000D3ED067A77EE277AC7ED047ABB683A6929
:103960001A6114E00023FB610AE0BA68FB690433C2
:103970009B0013444FF000021A60FB690133FB61A6
:10398000FB69002BF1DDBB684FF00002DA61BB6818
:10399000FA685A6200BF2037BD4680BD80B52DED64
:1039A000028B84B000AF786039603B689B687A68AE
:1039B000D31A3A6811461846FFF734FF0346002B26
:1039C00011D03B6893ED058A3B68D3ED037AB0EEE6
:1039D000670A01F08BFBF0EE407A68EE277A3B68CD
:1039E000C3ED047A10E00023FB600AE03A68FB684C
:1039F00004339B0013444FF000021A60FB6801334C
:103A0000FB60FB68002BF1DD00BF1037BD46BDEC4D
:103A1000028B80BD80B586B000AF786039603B68AE
:103A20009B687A68D31A3B613B6819463869FFF78F
:103A3000F9FE0346002B3ED03B685B889BB2002B0F
:103A400039D03B6893ED057A3B68D3ED066A3B6855
:103A5000D3ED057A76EEE76A3B685B889BB201336B
:103A60001A463B69B3FBF2F101FB02F29B1A07EE27
:103A7000903AF8EE677A26EEA76A3B685B889BB2BD
:103A800007EE903AF8EEE76AC6EE267A77EE277AE6
:103A9000C7ED037A3B68D3ED037AB0EE670A01F015
:103AA00025FBB0EE407AD7ED037A67EE277A3B68C4
:103AB000C3ED047A11E000237B610AE03A687B6978
:103AC00004339B0013444FF000021A607B690133FA
:103AD0007B617B69002BF1DD00BF00BF1837BD465D
:103AE00080BD000080B588B000AF786039603B6869
:103AF0009B687A68D31A3A6811461846FFF792FE17
:103B00000346002B42D00023FB613BE02A4AFB69BD
:103B10009B00134493ED007A3A68FB6904339B00E1
:103B200013440433D3ED007A77EE677AC7ED057A54
:103B3000D7ED057AF5EEC07AF1EE10FA06DD3A68B7
:103B4000FB6906339B0013441B6806E03A68FB6977
:103B500006339B00134404331B683B6197ED057AE1
:103B6000D7ED047A67EE277AF1EE677AC7ED037A2C
:103B70003A68FB6904339B001344FA681A60FB69D6
:103B80000133FB61FB69002BC0DD10E00023BB614A
:103B90000AE03A68BB6904339B0013444FF000020B
:103BA0001A60BB690133BB61BB69002BF1DD00BF4B
:103BB0002037BD4680BD00BF080B002080B582B015
:103BC00000AF78600B4BD3ED017A7B685433184615
:103BD000B0EE670A01F0F2FAF0EE407A7B681B69FA
:103BE00007EE103A67EE877AB0EE670A0837BD46EF
:103BF00080BD00BF780B002080B582B000AF786038
:103C00000B4BD3ED027A7B6880331846B0EE670A1F
:103C100001F0D4FAF0EE407A7B685B6907EE103A67
:103C200067EE877AB0EE670A0837BD4680BD00BFF1
:103C3000780B002080B582B000AF78600B4BD3EDDD
:103C4000037A7B68AC331846B0EE670A01F0B6FA27
:103C5000F0EE407A7B689B6907EE103A67EE877A50
:103C6000B0EE670A0837BD4680BD00BF780B002064
:103C700080B582B000AF78600B4BD3ED057A7B68DE
:103C8000D8331846B0EE670A01F098FAF0EE407AA1
:103C90007B68DB6907EE103A67EE877AB0EE670A59
:103CA0000837BD4680BD00BF780B002080B584B0CA
:103CB00000AF87ED010A3860D7ED017AF5EE407A62
:103CC000F1EE10FA02D14FF0000327E0D7ED017AB0
:103CD000F5EEC07AF1EE10FA01DB144B01E04FF083
:103CE0007E53FB603B682833184697ED010A01F0CC
:103CF00065FA87ED020A3B68DB68D7ED027A07EECA
:103D0000103A67EE877AC7ED027A97ED027AD7ED1F
:103D1000037A67EE277AC7ED027ABB6807EE903A1E
:103D2000B0EE670A1037BD4680BD00BF000080BFFF
:103D300080B588B000AF7861396187ED020A7B6099
:103D40001346FB813B699B687A699A4247D93B6974
:103D50009B687A69D31AFA890132B3FBF2F101FB4D
:103D600002F29B1A07EE903AF8EE676AFB8907EEBB
:103D7000903AB8EE677AC6EE877AC7ED077A3B6964
:103D8000D3ED017A97ED077A77EE277AC7ED067AB9
:103D9000D7ED067AB7EE007AF4EEC77AF1EE10FAB4
:103DA0000ADDD7ED067AFDEEE77AF8EEE77A97EDD1
:103DB000067A77EE677A01E0D7ED067A3B69C3EDC4
:103DC000017A3B69D3ED017A7B68D7ED020AB0EE48
:103DD000670A9847F0EE407A3B69C3ED007A3B6989
:103DE0007A699A603B691B6807EE903AB0EE670A01
:103DF0002037BD4680BD000080B584B000AF78603C
:103E00001E4BD3ED017A1E4B1B6824331846B0EECF
:103E1000670A01F0D3F987ED030A184BD3ED027A54
:103E2000174B1B6850331846B0EE670A01F0C6F90D
:103E300087ED020AD7ED037AF5EEC07AF1EE10FABB
:103E400014DDDFED106A97ED037AC6EE877AFCEE9B
:103E5000E77A17EE903A9AB20B4B97ED020A0B49AC
:103E60007868FFF765FFF0EE407A01E0DFED087A51
:103E7000B0EE670A1037BD4680BD00BF780B00204A
:103E80003402002000007A4425370008140B00207B
:103E90000000000080B584B000AF78601E4BD3ED09
:103EA000037A1E4B1B687C331846B0EE670A01F09C
:103EB00085F987ED030A184BD3ED037A174B1B687E
:103EC000A8331846B0EE670A01F078F987ED020AC8
:103ED000D7ED037AF5EEC07AF1EE10FA14DDDFEDDE
:103EE000106A97ED037AC6EE877AFCEEE77A17EE52
:103EF000903A9AB20B4B97ED020A0B497868FFF79C
:103F000017FFF0EE407A01E0DFED087AB0EE670AC5
:103F10001037BD4680BD00BF780B00203402002062
:103F200000007A4425370008200B00200000000024
:103F300080B586B000AFF86087ED020A796013465D
:103F4000FB70786897ED020AFFF7B0FE87ED050A6F
:103F5000FB78002B3BD07868FFF730FEB0EE407A5C
:103F6000D7ED027A67EE277A97ED057A77EE677AD2
:103F7000C7ED057A7868FFF73FFEB0EE407AD7EDDF
:103F8000027A67EE277A97ED057A77EE677AC7EDC2
:103F9000057A7868FFF74EFEB0EE407AD7ED027AE8
:103FA00067EE277A97ED057A77EE677AC7ED057A9F
:103FB0007868FFF75DFEB0EE407AD7ED027A67EEE3
:103FC000277A97ED057A77EE677AC7ED057A7B69F0
:103FD00007EE903AB0EE670A1837BD4680BD80B450
:103FE00083B000AF03463960FB71FB79082B0AD020
:103FF000082B11DC022B02DC002B07DC0CE0033B5E
:10400000042B09D805E03B689B6807E03B681B6808
:1040100004E03B685B6801E04FF0000307EE903A74
:10402000B0EE670A0C37BD465DF8047B70470000B0
:1040300080B52DED028B8AB000AFF8607A601A4629
:104040000B46FB721346BB722D4B1B6AFB612D4B5B
:104050001968FA7A13469B0113449B00D0330B4432
:104060000433BB61FB7A284A9B00134493ED007A2A
:10407000FB7AFA6904339B0013440433D3ED007ACE
:1040800077EE677ABA7A7B68B969B0EE670AF86842
:10409000984787ED090A00233B621FE0184A3B6AF4
:1040A00052F823307B61FB7A7A6904339B00134416
:1040B00093ED008A7B691B78DBB2B9691846FFF77C
:1040C0008EFFF0EE407A68EE277A97ED097A77EE68
:1040D000277AC7ED097A3B6A01333B623B6A0A2BB8
:1040E000DCDDBB691B6AD7ED097A07EE103A67EE93
:1040F000277AB0EE670A2837BD46BDEC028B80BD3B
:104100000800002034020020080B00202DE9B043F5
:1041100086B000AF786000237B616EE0704A7B69F7
:1041200052F82330BB60BB681B78DBB2013B072B26
:104130005FD801A252F823F0594100086B410008F2
:104140007D410008A5410008B9410008CD410008A3
:1041500091410008E1410008614A7B6952F823302F
:1041600019467868FFF71AFC44E05D4A7B6952F80B
:10417000233019467868FFF74DFC3BE0584A7B69CD
:1041800052F82330574A19467868FFF778FB31E038
:10419000534A7B6952F82330534A19467868FFF72F
:1041A0006EFB27E04E4A7B6952F823304F4A19468E
:1041B0007868FFF764FB1DE0494A7B6952F82330B9
:1041C0004B4A19467868FFF75AFB13E0444A7B696B
:1041D00052F82330474A19467868FFF750FB09E048
:1041E0003F4A7B6952F8233019467868FFF77AFC1A
:1041F00000E000BF7B6901337B617B690B2B8DDDA8
:1042000000F018FC0346FB73FB7B3B4A00217868F7
:10421000FFF70EFF87ED040AFB7B002B23D07868A5
:10422000FFF7EAFDF0EE407A344B1B685B6807EE5F
:10423000103A67EE877A97ED047A77EE277AC7ED22
:10424000047A7868FFF726FEF0EE407A2B4B1B6865
:104250009B6807EE103A67EE877A97ED047A77EE5F
:10426000277AC7ED047A264B1B681846FCF78EFAAE
:1042700004460D46224BD3ED007A97ED047A77EE93
:10428000677A17EE900AFCF781FA804689461B4B45
:104290001B68D3F8F8301846FCF778FA02460B464C
:1042A0004FF000001749FCF711F902460B46404653
:1042B0004946FBF7DDFF02460B4620462946FCF740
:1042C00007F902460B4610461946FCF7B7FA0346B3
:1042D0000B4A136000BF1837BD46BDE8B08300BF6E
:1042E0000800002025370008F1370008E9360008EB
:1042F00065370008BD370008313F00083402002050
:10430000100B00200000F03F80B588B000AF78604F
:104310003960634B1B68D3F822307B617B685B6834
:10432000DA687B685B681B6852085A627B685B6866
:104330001B685B6A3B610023FB611BE0FB6907EEC6
:10434000903AB8EEE77AD7ED057A67EE277A9FEDD7
:10435000557A67EE877AC7ED027AD7ED020A9FEDAC
:10436000520A3868FEF786FB142002F011FFFB6941
:104370000133FB61FB69632BE0DD4FF47A7002F0DF
:1043800007FF3A697B685B681B685B6AD31AFB604E
:104390007B685B68DA687B685B681B6852085A62F6
:1043A0007B685B681B685A6A7B68DA607B68DA68DE
:1043B000FB681A447B689A600023BB610023BB61E1
:1043C00011E0BB6907EE903AF8EEE77AD7ED050AFF
:1043D000B0EE670A3868FEF74DFB022002F0D8FE07
:1043E000BB690133BB61BB695A2BEADD7B685B6843
:1043F0001B685A6A7B68DB689A4203D97B68012292
:104400001A7602E07B68FF221A76FA2002F0C0FEDC
:104410005A23BB6111E0BB6907EE903AF8EEE77AE8
:10442000D7ED050AB0EE670A3868FEF723FB0120D6
:1044300002F0AEFEBB69013BBB61BB6913F15A0FD1
:10444000E9DAFA2002F0A4FE6FF05903BB6111E033
:10445000BB6907EE903AF8EEE77AD7ED050AB0EEC1
:10446000670A3868FEF706FB012002F091FEBB697F
:104470000133BB61BB69002BEADDBB6907EE903AF3
:10448000F8EEE77ADFED080AB0EE670A3868FEF763
:10449000F1FA7B6801221A7000BF2037BD4680BD4B
:1044A000380200200AD7233C0000000080B58CB001
:1044B00000AF786039607B685B68DA687B685B684E
:1044C0001B6852085A620023FB621FE0414B1B68C5
:1044D000D3F82230FA6A07EE902AF8EEE77A07EE70
:1044E000103A67EE277A9FED3C7A67EE877AC7ED40
:1044F000027AD7ED020A9FED390A3868FEF7BAFA58
:10450000142002F045FEFB6A0133FB62FB6A632B59
:10451000DCDD642002F03CFE7B685B681B685A6A45
:104520007B68DA600023BB620023BB6215E0BB6AD4
:1045300007EE903AF8EEE77A264B1B68D3F8223064
:1045400000EE903AB0EE670A3868FEF793FA012061
:1045500002F01EFEBB6A0233BB62BB6AB3F5B47FD6
:10456000E5DD7B685B681B685A6A7B68DB689A429A
:1045700003D97B6801221A7602E07B68FF221A7653
:10458000642002F005FE4FF4B473BB6215E0BB6A11
:1045900007EE903AF8EEE77A0E4B1B68D3F822301C
:1045A00000EE903AB0EE670A3868FEF763FA012031
:1045B00002F0EEFDBB6A023BBB62BB6A002BE6DA8F
:1045C0000023BB627B685B681B685B6AFB6100233E
:1045D0007B622AE0380200200AD7233C000000005A
:1045E000714B1B68D3F822307A6A07EE902AF8EEF6
:1045F000E77A07EE103A67EE277A9FED6C7A67EE5E
:10460000877AC7ED037ABB6A07EE903AF8EEE77A4D
:10461000D7ED030AB0EE670A3868FEF72BFA0A20D6
:1046200002F0B6FD7B6A01337B627B6A632BD7DDC8
:104630000A2002F0ADFD7B685B681B685B6ABB61AA
:104640007B685B681B685B6A3B623B6ABB617B683B
:1046500093F918305B00BA6A1344BB62BB6A07EE79
:10466000903AF8EEE77A504B1B68D3F8223000EE10
:10467000903AB0EE670A3868FEF7FCF9012002F0C4
:1046800087FD7B685B681B685B6A3B62BA693B6A53
:104690009A42DAD9BB697B617B6893F918305B0079
:1046A000BA6AD31ABB62BB6A07EE903AF8EEE77AB1
:1046B0003D4B1B68D3F8223000EE903AB0EE670A0B
:1046C0003868FEF7D7F9012002F062FD7B685B686D
:1046D0001B685B6A3B623A6AFB699A42DCD83B6AB8
:1046E000BB617B6893F918305B00BA6AD31ABB626E
:1046F000BB6A07EE903AF8EEE77A2B4B1B68D3F8CB
:10470000223000EE903AB0EE670A3868FEF7B2F950
:10471000012002F03DFD7B685B681B685B6A3B62C1
:10472000BA693B6A9A42DAD2BB693B613A697B69F2
:1047300013445A087B689A607B6893F918305B00D1
:10474000BA6A1344BB62BB6A07EE903AF8EEE77AA6
:10475000154B1B68D3F8223000EE903AB0EE670A92
:104760003868FEF787F9012002F012FD7B685B686C
:104770001B685B6A3B627B689B683A6A9A42DBD340
:10478000BB6A07EE903AF8EEE77ADFED090AB0EE81
:10479000670A3868FEF76EF97B6801221A7000BF5D
:1047A0003037BD4680BD00BF380200200AD7233C09
:1047B0000000000080B582B000AF00237B6027E0DE
:1047C000174B1B685B7F012B0FD17A681346DB0008
:1047D0009B1A9B00134A1A4413497B6851F82330F3
:1047E00019461046FFF762FE0FE07A681346DB00B9
:1047F0009B1A9B000B4A1A440B497B6851F82330E3
:1048000019461046FFF780FD00BF7B6801337B60CF
:104810007B68002BD4DD00BF00BF0837BD4680BDDC
:1048200038020020B40100200400002080B487B0CA
:1048300000AF786039603B68DA781B791B0213435C
:10484000FB823B689A79DB791B021343BB82BB8AEC
:10485000002B32D07B681B78002B2ED07B685B68E6
:104860001B685B6A3B613A697B689B68D31AFB6093
:10487000BB8A07EE903AF8EEE77A9FED147A27EEBE
:10488000877AFB8A07EE903AF8EEE77A67EE277AA6
:10489000C7ED027AFB6807EE903AF8EEE76AD7EDCB
:1048A000027A86EEA77A7B6893F9183007EE903A81
:1048B000F8EEE77A67EE277A01E0DFED057AB0EEF1
:1048C000670A1C37BD465DF8047B7047610BB63A3A
:1048D0000000000080B487B000AF786039603B68AA
:1048E0009A79DB791B021343FB823B685B797B750A
:1048F000FB8A002B35D07B7D002B32D07B681B7868
:10490000002B2ED0FB8A07EE903AF8EE676A7B7D8B
:1049100007EE903AB8EE677AC6EE877AC7ED047A6A
:104920007B685B681B685B6AFB60FA687B68DB68B6
:10493000D31ABB60BB6807EE903AF8EEE77A9FEDBA
:104940000D7A67EE876AD7ED047A86EEA77A7B68E0
:1049500093F9183007EE903AF8EEE77A67EE277A87
:1049600001E0DFED057AB0EE670A1C37BD465DF861
:10497000047B70470000B4430000000080B58CB099
:1049800000AFF860B9607A60284B1B6811330322CE
:104990001946274803F0B2FEF862244B1B68113316
:1049A00001221946224803F0A9FEB8621F4B1B687A
:1049B0001533012219461E4803F0A0FE78621B4BF6
:1049C0001B68193301221946194803F097FE386213
:1049D000FA68FB6A5340FB61BA68FB6A5340BB61EB
:1049E0007A68FB6A53407B61FA69BB6A9A420CBFE2
:1049F00001230023DAB2B9697B6A99420CBF012313
:104A00000023DBB21340DBB219467A693B6A9A4253
:104A10000CBF01230023DBB20B40002B14BF01238A
:104A20000023DBB218463037BD4680BD3802002077
:104A3000C40D002080B400AF094B1B78012B06D1B8
:104A4000084B1B681B79002B01D0012300E00023D9
:104A500003F00103DBB21846BD465DF8047B7047E6
:104A6000780B00203802002080B487B000AF786057
:104A700039607A683B68D31A272B1DDDEFF310836A
:104A8000FB60FB687B6172B600BF0E4B1B6841F296
:104A90006702DA630B4B1B6800221A64094B1B6820
:104AA0007A68DA63074B1B683A681A647B693B6172
:104AB0003B6983F3108800BF00BF1C37BD465DF81B
:104AC000047B7047A40F00202DE9B04388B000AFED
:104AD00087ED030AC7ED020A7860396097ED027A24
:104AE000D7ED037A77EE677AC7ED077A3B68DB6824
:104AF000D7ED077A07EE103A67EE877AC7ED067AA8
:104B00007B681B681846FBF741FE04460D463B6870
:104B10001B69DFED3D7A07EE103A87EE277A17EE34
:104B2000100AFBF733FE4FF00002384BFBF7A0FBF7
:104B300002460B46904699467B6893ED017AD7ED85
:104B4000077A77EE277A17EE900AFBF71FFE0246E8
:104B50000B4640464946FBF78BFB02460B46204678
:104B60002946FBF7B5FC02460B4610461946FBF7F3
:104B700065FE03467B61D7ED057AB7EE007AF4EE69
:104B8000C77AF1EE10FA02DD4FF07E530BE0D7ED5D
:104B9000057ABFEE007AF4EEC77AF1EE10FA01D58D
:104BA0001B4B00E07B697B6197ED067AD7ED057AB8
:104BB00077EE277AC7ED047AD7ED047AB7EE007A5C
:104BC000F4EEC77AF1EE10FA02DD4FF07E530BE0FF
:104BD000D7ED047ABFEE007AF4EEC77AF1EE10FA60
:104BE00001D50B4B00E03B693B617B687A691A6039
:104BF0007B68FA695A603B6907EE903AB0EE670A43
:104C00002037BD46BDE8B08300401C460000E03FB1
:104C1000000080BFB0B594B000AF87ED050A3861E1
:104C2000F960BA607B60D7ED057AB7EE007AF4EEF2
:104C3000C77AF1EE10FA03DD4FF00004904D11E059
:104C4000D7ED057ABFEE007AF4EEC77AF1EE10FAEE
:104C500003D54FF000048B4D04E07869FBF796FD17
:104C600004460D46884B1B68D3F81E301846FBF7E8
:104C70008DFD02460B4620462946FBF7F9FA02460F
:104C80000B4614461D467B6893F900301846FBF727
:104C90006BFD02460B4620462946FBF7E9FA024621
:104CA0000B4610461946FBF7C9FD0346FB644FF05F
:104CB0000003BB64BB68D3ED007AB1EE677ABB68D2
:104CC000D3ED017A77EE677AC7ED117ABB6893ED81
:104CD000007ABB68D3ED017A77EE677A9FED6B7A45
:104CE00067EE877AC7ED107A7968F868FFF7F2FD0A
:104CF00087ED0F0A97ED0F0A00F0B8F987ED0E0A5D
:104D000097ED0E0A00F042FA87ED0D0A97ED0E0AB4
:104D100000F0ECF987ED0C0A97ED117AD7ED0D7ADA
:104D200027EE277AD7ED106AD7ED0C7A66EEA77AD0
:104D300077EE277AC7ED0B7A97ED107AD7ED0D7ADB
:104D400027EE277AD7ED116AD7ED0C7A66EEA77AAF
:104D500077EE677AC7ED0A7A3B6E79681846D7ED29
:104D60000B0A97ED120AFFF7AFFE87ED090A3B6EBB
:104D7000083379681846D7ED0A0A97ED130AFFF74A
:104D8000A3FE87ED080A97ED0D7AD7ED097A27EE95
:104D9000277AD7ED0C6AD7ED087A66EEA77A77EE18
:104DA000677AC7ED077A97ED0D7AD7ED087A27EE87
:104DB000277AD7ED0C6AD7ED097A66EEA77A77EEF7
:104DC000277AC7ED067AD7ED077AB1EE677AD7ED85
:104DD000067AF1EE677AF0EE670AB0EE470A3869B4
:104DE000FDF74EFC97ED097AD7ED0B7A27EE277A7F
:104DF000D7ED086AD7ED0A7A66EEA77A77EE277ABA
:104E00009FED237A67EE877AB7EE007AF4EEC77AE1
:104E1000F1EE10FA02DDF7EE007A2BE097ED097A59
:104E2000D7ED0B7A27EE277AD7ED086AD7ED0A7A05
:104E300066EEA77A77EE277A9FED157A67EE877A86
:104E4000F5EEC07AF1EE10FA02D5DFED127A11E03C
:104E500097ED097AD7ED0B7A27EE277AD7ED086A16
:104E6000D7ED0A7A66EEA77A77EE277A9FED087A71
:104E700067EE877AB0EE670A5037BD46B0BD00BF17
:104E80000000F03F0000F0BF38020020EFC9133FE0
:104E90000000074200000000B0B586B002AF4FF03E
:104EA0000003FB600023BB6035E0404ABB689B0009
:104EB0001344D3ED007A3E4ABB6852F82300BA6827
:104EC0001346DB009B1A9B003A4A9C18BB68DB0028
:104ED000394A9D18394B1968BA681346DB009B1A8A
:104EE0009B0028330B449A1DBB681B0134490B44BB
:104EF000009313462A462146B0EE670AFFF78AFE62
:104F0000B0EE407AD7ED037A77EE877AC7ED037A71
:104F1000BB680133BB60BB68002BC6DDD7ED037AED
:104F20009FED287A27EE877A244B1B68D3F82A3026
:104F3000DFED247A06EE903A66EEA77AB4EEE77AD1
:104F4000F1EE10FA0CDD1D4B1B68D3F82A30DFEDB3
:104F50001D7A07EE103A67EE277AFDEEE77A15E044
:104F6000D7ED037A9FED177A67EE877AF5EEC07A70
:104F7000F1EE10FA02D5DFED147A07E0D7ED037AEF
:104F80009FED107A67EE877AFDEEE77AC7ED017A3A
:104F90007B6828333B603B687A6811461846FFF708
:104FA00063FD00BF1037BD46B0BD00BF100B002031
:104FB00004000020B40100203C0B00203802002037
:104FC0002C0B0020003003450000000080B582B0AB
:104FD00000AF786039607868FDF7F9FF3968786864
:104FE000FEF744FA08217868FEF7C5F820217868B2
:104FF000FEF7A0F84FF410717868FEF77BF80C21EB
:105000007868FEF7D9F83B68012283F823203968D5
:105010007868FEF728F900BF0837BD4680BD00005C
:1050200080B582B000AF00237B6015E07A6813463C
:10503000DB009B1ADB000C4A98187A681346DB00E9
:105040009B1ADB001033084A134404331946FFF758
:10505000BDFF7B6801337B607B68002BE6DD00BF12
:1050600000BF0837BD4680BDD001002080B485B0A8
:1050700000AF87ED010AD7ED017AFDEEE77A17EE72
:10508000903A184A82FB03121A441212DB17D31A01
:10509000FB60FB684FF4B47202FB03F307EE903A37
:1050A000F8EEE77A97ED017A77EE677AC7ED017A45
:1050B000D7ED017AF5EEC07AF1EE10FA07D5D7ED0B
:1050C000017A9FED097A77EE877AC7ED017A7B68DE
:1050D00007EE903AB0EE670A1437BD465DF8047BE0
:1050E000704700BFB7600BB60000B44380B584B012
:1050F00000AF87ED010A97ED010AFFF7B7FF87EDD3
:10510000010AD7ED017AFDEEE77A17EE901A1D4BF2
:1051100083FB01239A10CB17D31AFB60FB6807EEC1
:10512000903AF8EEE77AB2EE047A67EE877A97ED76
:10513000017A37EE677AF2EE046AC7EE267AC7ED97
:10514000027A114AFB689B00134493ED007AFB68D6
:1051500001330D4A9B001344D3ED006A0A4AFB68F1
:105160009B001344D3ED007A76EEE76AD7ED027A1E
:1051700066EEA77A77EE277AB0EE670A1037BD465B
:1051800080BD00BF67666666C007010880B582B053
:1051900000AF87ED010AD7ED017A9FED077A77EE30
:1051A000877AB0EE670AFFF7A1FFF0EE407AB0EE23
:1051B000670A0837BD4680BD0000B44280B489B09C
:1051C00000AF87ED010A3860D7ED017AF0EEE77A9B
:1051D000C7ED077AD7ED077AF5EE407AF1EE10FACF
:1051E00002D13B681B6858E0D7ED077AB7EE007A2A
:1051F000F4EEC77AF1EE10FA02DB3B689B6A4CE0F2
:10520000D7ED077A9FED297A67EE877AC7ED067AA0
:10521000D7ED067AFDEEE77A17EE901A244B83FB62
:1052200001239A10CB17D31A7B617A6913469B002E
:1052300013445B0007EE903AF8EEE77A97ED067AB2
:1052400077EE677A9FED1B7A67EE877AC7ED047A6F
:105250003A687B699B00134419680B4619467B69C1
:1052600001333A689B0013441868034618463A68AD
:105270007B699B0013441B6807EE900A07EE103A07
:1052800037EEC77AD7ED047A67EE277A07EE101A61
:1052900077EE277AC7ED037AFB6807EE903AB0EE17
:1052A000670A2437BD465DF8047B70470000C8429A
:1052B00067666666CDCCCC3D80B487B000AF034650
:1052C0000A4687ED020AC7ED010AFB811346BB813E
:1052D000FA89BB89D31A7B617B6907EE903AF8EEB5
:1052E000E77A9FED0F7A67EE877AC7ED047A97ED3C
:1052F000047AD7ED027A37EE677AF7EE006AD7EDD7
:10530000017A76EEE77A27EE277AD7ED027A77EE02
:10531000277AB0EE670A1C37BD465DF8047B7047FC
:105320000000003A80B500AF174B5A88174B5988D8
:10533000174BD3ED007A174B1B68D3F8263000EEDD
:10534000903AB0EE670A1046FFF7B6FFF0EE407AEB
:105350000F4BC3ED007A0C4B9A880C4B99880C4B81
:10536000D3ED017A0B4B1B68D3F8263000EE903A50
:10537000B0EE670A1046FFF79FFFF0EE407A044B4D
:10538000C3ED017A00BF80BD4C0B00205C0B0020F8
:105390003C0B00203802002080B586B000AF4FF0F3
:1053A00000037B614FF000033B614FF00003FB60A3
:1053B0004FF00003BB60642001F0EAFE00237B6035
:1053C00035E0384B5B8807EE903AF8EEE77A97EDD8
:1053D000057A77EE277AC7ED057A324B9B8807EE80
:1053E000903AF8EEE77A97ED047A77EE277AC7EDF0
:1053F000047A2D4B5B8807EE903AF8EEE77A97ED4A
:10540000037A77EE277AC7ED037A274B9B8807EE5E
:10541000903AF8EEE77A97ED027A77EE277AC7EDC1
:10542000027A012001F0B4FE7B6801337B607B6867
:10543000632BC6DD97ED057ADFED1C6AC7EE267A91
:10544000FCEEE77A17EE903A9AB2194B5A8097ED34
:10545000047ADFED166AC7EE267AFCEEE77A17EEDD
:10546000903A9AB2124B9A8097ED037ADFED0F6A69
:10547000C7EE267AFCEEE77A17EE903A9AB20D4B19
:105480005A8097ED027ADFED096AC7EE267AFCEEC4
:10549000E77A17EE903A9AB2064B9A8000BF183717
:1054A000BD4680BD4C0B0020440B00200000C842CC
:1054B0005C0B0020540B002080B500AF074802F0C1
:1054C00055FA074802F052FA064802F00DFB032293
:1054D0000549044802F006FC00BF80BD940C002082
:1054E000A40B00204C0C0020440B002080B582B09F
:1054F00000AF786001210D4802F0BCFB03469AB270
:105500000B4B1A8001210B4802F0B4FB03469AB200
:10551000074B5A800121084802F0ACFB03469AB2BF
:10552000034B9A8000BF0837BD4680BD4C0C00205D
:105530004C0B0020A40B0020940C00202DE9B0435C
:1055400086B000AFF860C7E9002303F0F1FC164B0A
:10555000B322DA600221F86803F04CFE00237B617D
:1055600017E039687B693A6B13441B78DBB2002281
:105570009846914642464B46002003F085FCD7E909
:105580000023541C43F10005C7E900457B69013342
:105590007B61BB8E7A699A42E3DB03F0EBFC00BFD0
:1055A0001837BD46BDE8B083003C0240F0B583B07B
:1055B00002AF354B1B68354A104619464FF4EC7361
:1055C0001A460AF0D7F8324BD3F8F4302F4AC2F813
:1055D000F4302F4BD3F8F8302C4AC2F8F8302C4B6B
:1055E000D3F8DC30294AC2F8DC30294BD3F8D43068
:1055F000264AC2F8D430264BD3F8D830234AC2F812
:10560000D830234BD3F8E030204AC2F8E0301F4AAC
:105610001F4BFC3302F1FC0003F120040246194643
:10562000D1F800C04E688D68C968C2F800C05660E5
:105630009560D16010331030A342EFD10246186854
:1056400059689B68106051609360104B4FF0FF32B7
:105650001A704FF0FF325A70002262F055029A70B1
:10566000002262F05502DA704FF4EC730193074B9D
:105670000093084A4FF000030A20FFF75FFF00BFC6
:105680000437BD46F0BD00BF3402002028100020C2
:105690008802002000000C0880B582B002AF144BD5
:1056A0001B68144A104619464A231A460AF062F843
:1056B000104B93F92E200F4B83F82E200D4B002218
:1056C0001A7000225A70002242F00E029A700022D4
:1056D00042F00802DA704A230193074B0093074A0D
:1056E0004FF000030B20FFF729FF00BFBD4680BD30
:1056F00038020020001200203C02002000000E08AA
:1057000080B582B002AF0E4B4FF0FF321A704FF0EF
:10571000FF325A70002262F055029A70002262F045
:105720005502DA704FF4EC730193054B0093054A70
:105730004FF000030A20FFF701FF00BFBD4680BD08
:105740008802002000000C0880B582B002AF154B23
:105750004FF0FF321A704FF0FF325A70002262F0A1
:1057600055029A70002262F05502DA700E4B1B68E7
:105770000C4AC2F811300D4B1B680A4AC2F81530AA
:105780000B4B1B68074AC2F819304A230193054B9B
:105790000093084A4FF000030B20FFF7CFFE00BF35
:1057A000BD4680BD3C020020107AFF1F147AFF1F07
:1057B000187AFF1F00000E0880B582B000AF194BA9
:1057C0001B687B607B68184A934226D0174B1B6886
:1057D000D3F80530164AC2F80530144B1B68D3F8CD
:1057E0000930134AC2F80930104B1B68D3F80D304A
:1057F0000F4AC2F80D300E4BD3F805300C4AD2F8E0
:1058000009100B4AD2F80D201846FFF7B7F80346E7
:105810001A46074B1A71FFF797FF00BF0837BD46BE
:1058200080BD00BF00000E08FFFFAAAA38020020BA
:105830003C02002080B582B000AF064B1B687B6045
:105840007B68054A934201D0FFF75AFF00BF083733
:10585000BD4680BD00000C08FFFFAAAA80B500AFBE
:10586000FFF7E8FFFFF7A8FF00BF80BD80B500AFDE
:10587000054B1B681B79002B02D0FFF741FF01E0AD
:10588000FFF794FE00BF80BD3802002080B500AF56
:105890000D4BD3F805300C4AD2F809100A4AD2F859
:1058A0000D201846FFF76AF803461A46064B1A7190
:1058B000054B1B79002B02D0FFF746FF01E0FFF7F5
:1058C000EBFE00BF80BD00BF3C02002080B584B06D
:1058D00000AF78607B685B889BB24FF6FF729342A3
:1058E00015D07B681B889BB21A460C4B1344FB6097
:1058F0007B685B889BB23A2B28BF3A237B817B680D
:1059000004337A891946F86809F034FF02E0044B41
:1059100001221A7000BF1037BD4680BD88020020EA
:10592000750B002080B584B000AF78607B685B8821
:105930009BB24FF6FF72934215D07B681B889BB2D7
:105940001A460C4B1344FB607B685B889BB23A2B76
:1059500028BF3A237B817B6804337A891946F8682B
:1059600009F008FF02E0044B01221A7000BF103753
:10597000BD4680BD3C020020760B002080B400AF05
:10598000B44B1A78B44B1A70B34B1B78012B40F010
:105990004881B04BD3F80D2013461A46AF4B1B6815
:1059A0001B6A07EE902A07EE103AC7EE877AB7EE29
:1059B000007AF4EEC77AF1EE10FA02DDF7EE007A23
:1059C00023E0A44BD3F80D2013461A46A34B1B68C3
:1059D0001B6A07EE902A07EE103AC7EE877AF5EEBB
:1059E000C07AF1EE10FA02D5DFED9D7A0DE0994B09
:1059F000D3F80D2013461A46984B1B681B6A07EE16
:105A0000902A07EE103AC7EE877A934BC3ED057ADA
:105A1000904BD3F8052013461A46904B1B689B69A0
:105A200007EE902A07EE103AC7EE877AB7EE007AB3
:105A3000F4EEC77AF1EE10FA02DDF7EE007A25E017
:105A4000844BD3F8052013461A46844B1B689B6988
:105A500007EE902A07EE103AC7EE877ABFEE007A7B
:105A6000F4EEC77AF1EE10FA02D5FFEE007A0DE0FF
:105A7000784BD3F8052013461A46784B1B689B6970
:105A800007EE902A07EE103AC7EE877A724BC3ED05
:105A9000037A704BD3F80530F7EE007A07EE103A30
:105AA00037EE677A6D4B1B689B6907EE903AC7EE3D
:105AB000277AB7EE007AF4EEC77AF1EE10FA02DD3B
:105AC000F7EE007A29E0634BD3F80530F7EE007A61
:105AD00007EE103A37EE677A604B1B689B6907EE5A
